:020000040800F2
:10000000C00A0020C5010008012F0008E5270008EC
:10001000FD2E0008AD080008813100080000000036
:10002000000000000000000000000000293000086F
:10003000B108000800000000052F00082D3000085E
:10004000DF010008DF010008DF010008DF01000810
:10005000DF010008DF010008DF010008DF01000800
:10006000DF010008DF010008DF010008DF010008F0
:10007000DF010008DF010008DF010008DF010008E0
:10008000DF010008DF010008DF010008DF010008D0
:10009000DF010008DF010008DF010008DF010008C0
:1000A000DF01000835300008DF010008DF0100082B
:1000B000DF010008DF010008DF010008DF010008A0
:1000C000DF010008DF010008DF010008DF01000890
:1000D000DF01000875310008DF010008DF010008BA
:1000E000DF010008DF010008DF01000800F002F86E
:1000F00000F058F814A696E8000CB244B344DA4570
:1001000001D100F04FF8BAE80F000FA696E83000D2
:10011000A5EB040504EB0607AAEB0704A7F101070A
:100120004FEA15154FEA3414A4F10104AC4201D38F
:1001300000F038F813F0010F18BFFB1A43F0010369
:1001400000F001F8DBE7184724F7000044F700004F
:10015000103A24BF78C878C1FAD8520724BF30C8F3
:1001600030C144BF04680C60704700007047000055
:100170000023002400250026103A28BF78C1FBD8B0
:10018000520728BF30C148BF0B607047642900F098
:10019000A980732900F09882002070471FB51FBD09
:1001A00010B510BD00F0C6FA1146FFF7F7FF03F0D7
:1001B000FDF900F0E4FA03B4FFF7F2FF03BC00F02E
:1001C000EBFA00000948804709480047FEE7FEE7D0
:1001D000FEE7FEE7FEE7FEE7FEE7FEE7FEE7FEE7F7
:1001E00004480549054A064B7047000031300008B5
:1001F000ED000008C0040020C00A0020C006002056
:10020000C00600200FB41CB50C0007AA009007D050
:100210004142A14202D32044401E01E04FF0FF3092
:10022000074B7B4469460190069800F020FA0021B4
:10023000002C01D0009A11701CBC5DF814FB00006A
:100240006F04000070B5044685690068C10601D5D9
:10025000302600E02026C00707D070BDD4E9012178
:1002600030469047206A401C20626D1EF6D570BD56
:1002700070B5044685690078C00707D170BDD4E920
:10028000012120209047206A401C20626D1EF6D577
:1002900070BD70B50C460546012A05D02878800649
:1002A00000D5EA69002302E0012305E05B1C9342CC
:1002B00002D2E05C0028F9D1A869E618C01AA8614A
:1002C000286A184428622846FFF7BCFF04E0D5E9F5
:1002D000012114F8010B9047B442F8D32846FFF7E8
:1002E000C7FF70BD2DE9F04106460024106875294E
:1002F000314616A510D0AFF30080002802DA404244
:1003000013A507E031688A0701D512A502E0490765
:1003100004D511A5012401E0AFF3008000210A22D9
:1003200006F1240709E0B0FBF2FCB0FBF2F302FB9C
:100330001C00303078541846491C0028F3D123465D
:100340002A463046BDE8F04100F033B90000000015
:100350002D0000002B000000200000002DE9F05FC0
:10036000894604464FF0000ADFF874B1FB44C0F838
:1003700020A02046E1688847002874D0252806D0B0
:10038000D4E901219047206A401C2062F1E7002651
:100390005F462046E16888472028054607DB312D67
:1003A00005D2781910F8200C08B10643F1E7B00720
:1003B00001D526F00406C4F81CA00027C4F818A034
:1003C0002A2D09D0284603F0E2F938B304EB870858
:1003D000303DC8F8185019E059F8041B204604EBCA
:1003E00087029161E1688847012F054618D1E069CD
:1003F000002820DA26F020061DE0D8F8180000EBCF
:10040000800005EB40003038C8F818002046E1684D
:100410008847054603F0BBF90028EED1012F0AD02A
:100420002E2D08D12046E16888477F1C0546022F03
:1004300046F02006C4DBA069002803DA404246F0FB
:100440000106A061F00701D026F010066C2D0BD03C
:10045000682D09D04C2D39D06A2D35D0742D35D06A
:100460007A2D33D016E038E0E1682F4620468847E1
:10047000B842054609D16C2F26D04FF48060E16860
:10048000064320468847054604E06C2F1AD04FF4F7
:10049000807006430DB3A5F14100192802D820351C
:1004A00046F400664A462946204626604E46FFF737
:1004B0006DFE80B101280BD0F61D26F0070000F17B
:1004C000080956E74020E4E78020D8E70020D6E777
:1004D00006F104094DE7284652E7206ABDE8F09F7F
:1004E0002C34000010B5431C02E010F8011B71B160
:1004F0008107FAD14FF0013202C88C1A8C4314EAFA
:10050000C211F9D0C01A0A0603D0C01E10BDC01A0D
:1005100010BD0A0401D0801E10BD0902FCD0401E8F
:1005200010BD032A40F2308010F0030C00F015805B
:1005300011F8013BBCF1020F624498BF11F801CBE6
:1005400000F8013B38BF11F8013BA2F1040298BF4B
:1005500000F801CB38BF00F8013B11F0030300F0B5
:10056000B780083AC0F0088051F8043B083A51F8C7
:1005700004CBA0E80810F5E7121D5CBF51F8043B5E
:1005800040F8043BAFF30080D20724BF11F8013BD1
:1005900011F801CB48BF11F8012B24BF00F8013B33
:1005A00000F801CB48BF00F8012B70477047704737
:1005B00070472DE9F0470D4699469246044600F1F2
:1005C00024080168880604D5E06921F01001216043
:1005D00000E00120A84201DD471B00E00027A169DF
:1005E0007A1902EB0900081AA0612078C00602D42B
:1005F0002046FFF727FE002608E0D4E901211AF87B
:1006000006009047206A401C761C20624E45F4DBB1
:100610002078C0060AD52046FFF714FE06E0D4E98C
:10062000012130209047206A401C2062381EA7F12B
:100630000107F4DC07E0D4E9012118F80500904730
:10064000206A401C2062281EA5F10105F3DC20462B
:10065000FFF70EFE2078000602D50220BDE8F087E5
:100660000120FBE701694A1C02610878704700B568
:100670008FB0CDE901310021059105497944CDE9DB
:10068000031011466846FFF769FE0FB000BD000079
:10069000E5FFFFFFD1E900239A4202D2531C0B6011
:1006A0001070704710B5436913B1AFF3008001E0DB
:1006B000FFF7EFFD012010BD127800F124010A7050
:1006C00000224A700122EDE711684FF0FF32E9E79E
:1006D00010B5203AC0F00B80B1E81850A0E81850CF
:1006E000B1E81850A0E81850203ABFF4F5AF5FEA1F
:1006F000027C24BFB1E81850A0E8185044BF18C9C4
:1007000018C0BDE810405FEA827C24BF51F8043B6A
:1007100040F8043B08BF7047D20728BF31F8023BBE
:1007200048BF11F8012B28BF20F8023B48BF00F852
:10073000012B7047754600F02BF8AE460500694660
:10074000534620F00700854618B020B5FFF748FD56
:10075000BDE820404FF000064FF000074FF00008C2
:100760004FF0000BAC46ACE8C009ACE8C009ACE8FF
:10077000C009ACE8C00921F007018D46704710B5EB
:100780000446AFF300802046BDE81040FFF713BDDC
:10079000004870471000002001491820ABBEFEE75A
:1007A00026000200704700002DE9F04F83B040F2B0
:1007B00068380029C2F2000852D040F2F0260546FF
:1007C0004FEA0119C2F200064FF0000A4FF0000B89
:1007D000029119E029A2FFF715FD4FF65C0108EB25
:1007E0000A00C0F60001C0E9011643F24101C0F65B
:1007F000000148F80A70C1600AF1100A0BF1010B00
:10080000D14506F1060629D015F80B40A4F1640085
:1008100010F1630FF0D34EF2FA7104EB4400C0F212
:10082000030101EB4001080AC9B20522334602F078
:10083000A9FC0020707140F2B010C2F2000000EB81
:100840000A07512C0BF1010338464FF01001C1D0BB
:10085000502C1ABF11A200940CA2BCE7029900E030
:10086000002108EB01100901002248F80120C0E92D
:100870000122C26003B0BDE8F08F00BF25642E20C6
:10088000545559454E204E545400000025642E20E6
:10089000545559454E2047425454000025642E209B
:1008A000545559454E20256400000000FEE7000025
:1008B00070470000014690F82100022816D1086810
:1008C000D1E90FC3026822F00E020260026822F032
:1008D00001020260012000FA03F2CCF8042081F842
:1008E00021000020002281F8202070470420886326
:1008F0000120002281F820207047000090F821108C
:10090000022923D1026840F2040C1168C4F2020CDF
:1009100021F00E01116013682F21C4F202018A42F6
:1009200023F00103136015DD3023C4F202039A4261
:100930001CD04423C4F202039A421BD05823C4F2B1
:1009400002039A421CD14FF4803321E004218163D9
:10095000012070470823C4F202039A420ED01C23E0
:10096000C4F202039A420BD1102311E04FF48073BA
:100970000EE000BF4FF480530AE000BF012307E000
:100980000CF168014FF080738A4208BF4FF4801366
:100990000121CCF8003080F82110416B00220029A1
:1009A00080F8202004BF0020704780B588470020D1
:1009B00080BD0000B0B5044600F01EF9054640F2C7
:1009C0000000C2F200000078611C18BF044400BFA0
:1009D00000F012F9401BA042FAD3B0BD2DE9F04F50
:1009E00082B00E68002E00F0FD8041F20042C4F299
:1009F0000102042340F2004E904208BF03234FF649
:100A0000FF7CC4F2010E009300240123C1F2100CFC
:100A10004FF0000A4FF000094BE000BF41F2000226
:100A2000C4F20102009F904208BF022704F00C03A9
:100A30000F229A402BEA020207FA03F34FEA9A05C3
:100A40001A4346F825204E6840F20C45F202DEF8C3
:100A5000082054BF22EA080242EA0802C4F2010553
:100A6000CEF808202A68B30254BF22EA080242EAFC
:100A700008022A60B303DEF8042054BF22EA080209
:100A800042EA0802F303CEF80420DEF800204FF01B
:100A9000010354BF22EA080242EA0802CEF800200D
:100AA0000E680AF1010A36FA0AF204F1040400F0B1
:100AB000998003FA0AFB16EA0B08F1D04E686645E6
:100AC00012DC122E56D8DFE806F0350B4D4955558D
:100AD000555555555555555555555545510000BF1A
:100AE000D1F80C9046E000BF4FF6FF72C1F2210230
:100AF00096420FDC0022C1F2110296421AD0002267
:100B0000C1F21202964215D00022C1F22102964291
:100B100010D02FE00022C1F2220296420AD0002219
:100B2000C1F23102964205D00022C1F23202964251
:100B300020D100BF8A684AB1012A14BFC0F814B09E
:100B4000C0F810B04FF0080914E000BF4FF00409DE
:100B500010E000BFCA6802F104090BE04FF0000981
:100B600008E000BFCA6802F1080903E0CA6802F1A0
:100B70000C0900BF02462646B8F5807F24BF043228
:100B8000203E17680F25B54027EA050509FA06F645
:100B900035431560CA79D2067FF582AF41F218035A
:100BA000C4F202031A68AEF57E7642F001021A60C2
:100BB0001A6802F001020192019A2AF0030256F823
:100BC00002B040F60002C4F20102904208D040F6A2
:100BD0000042C4F2010290427FF420AF012725E7D2
:100BE000002723E702B0BDE8F08F0000002A08BF0D
:100BF000090401617047000040F2B840C2F20000F1
:100C00000068704740F2000040F2B841C2F20000B4
:100C1000C2F2000100780A681044086070470000C2
:100C200080B542F20000C4F20200016841F01001F8
:100C30000160032000F0BCF80F2000F005F800F080
:100C400057F8002080BD0000B0B586B041F2180111
:100C5000C4F202010A68054642F400620A600968AB
:100C600001A801F4006101910199694600F08EF933
:100C700000F0C2F94DF68361C4F21B31A0FB010103
:100C80004FF0FF3000EB914140F2201042F600425D
:100C9000C2F20000C4F2010240F2E7330024C0E9CE
:100CA0000021C0E902430461846100F0E5FF08B15E
:100CB00006B0B0BD40F22010C2F2000001F05CF8B6
:100CC0000028F5D1192000F035F80F2D0CD8192087
:100CD0002946002200F040F840F204010020C2F250
:100CE00000010D6006B0B0BD012006B0B0BD00002F
:100CF00082B041F21800C4F202000168022241F001
:100D000001010160016801F001010191019941684F
:100D100041F080514160406800F0805000900098A0
:100D20000420C4F20100016862F31A61016002B09C
:100D300070470000002848BF704700F01F010122E3
:100D400002FA01F11C2202EAD0004EF20012CEF2A9
:100D5000000281507047000010B54EF60C5CCEF2D8
:100D6000000CDCF80030C3F3022E8EF00704042CD4
:100D700028BF0424BEF103034FF0FF3E0EFA04F433
:100D800038BF0023A14399400EFA03F39A4311435D
:100D900000F00F0200F160430901043A03F56443D7
:100DA0006244002848BF02F10C03197010BD000016
:100DB0004EF60C51CEF200010A684FF6FF031A40BE
:100DC00060F30A2242F0806040F0FD7008607047D6
:100DD000002804BF012070472DE9F04381B042F2A2
:100DE0000008C4F202080446D8F800000D4600F0DE
:100DF000070081420CD9D8F8000020F007002843F2
:100E0000C8F80000D8F8000000F00700A8426CD134
:100E1000206841F204098107C4F2020917D541078D
:100E200005D5D9F8001041F4E061C9F800100107B8
:100E300005D5D9F8001041F46051C9F80010D9F86F
:100E40000010A26821F0F0011143C9F80010C0079A
:100E500042D1D8F8000000F0070085420CD2D8F843
:100E6000000020F007002843C8F80000D8F8000070
:100E700000F00700A84238D12068410707D5D9F80B
:100E80000010E26821F4E0611143C9F80010000786
:100E900008D5D9F80000216920F4605040EAC1006B
:100EA000C9F80000D9F8002002F00C00082841F22F
:100EB0000020C0F27A004DD14FF64B03C2F38341BC
:100EC000C0F60003595CD20338D440F60010C0F2DB
:100ED0003D0048433EE000BF606859F8041C02280A
:100EE00008D0012826D1890306D4012001B0BDE82D
:100EF000F08300BF8901F8D5D9F8001021F0030173
:100F00000843C9F80000FFF777FE064641F288372C
:100F1000D9F80000616800F00C00B0EB810F98D0A8
:100F2000FFF76AFE801BB842F2D9032001B0BDE88A
:100F3000F08300BF8907D8D5DEE700BFD9F80020CD
:100F400043F2C573C2F34042C0F600039A5C4843C3
:100F5000B0FBF2F0D9F8001043F2AD72C1F3031107
:100F6000C0F60002515C40F2080220FA01F140F2A2
:100F70000400C2F200000068C2F200021160FFF734
:100F800063FE002001B0BDE8F08300000F22026084
:100F900041F20402C4F20202136803F00303436047
:100FA000136803F0F0038360136803F4E063C36025
:100FB00012684FF4E06303EAD202026142F20000D9
:100FC000C4F20200006800F00700086070470000EB
:100FD00040F2080041F20401C2F20000C4F2020132
:100FE0000068096843F2BD72C1F30221C0F6000235
:100FF000515CC8407047000040F2080041F2040113
:10100000C2F20000C4F202010068096843F2BD7236
:10101000C1F3C221C0F60002515CC8407047000015
:10102000002804BF012070472DE9F04182B004463A
:10103000007841F20006C007C4F202060CD07068C6
:1010400000F00C00042840F081803068800303D554
:101050006068002800F04681207880071BD5706802
:1010600010F00C0F09D0706800F00C00082840F058
:1010700087807068C00300F183803068800703D5E3
:101080002069012840F02E813068616920F0F80065
:1010900040EAC10030602078000713D42078400770
:1010A0002CD4E569002D00F01881706800F00C0068
:1010B000082840F0A780012D40F00481012002B0F3
:1010C000BDE8F081A069002800F084800020C4F20F
:1010D00042200121C0F88014FFF78EFD054600BFB5
:1010E000706A800700F1B280FFF786FD401B02287E
:1010F000F6D9032002B0BDE8F08100BFF0695FEAD5
:10110000C00808D4F06940F08050F061F06900F048
:1011100080500090009847F20007C4F2000738683A
:10112000C00549D4386840F480703860FFF764FD2A
:10113000054600BF3868C0053ED4FFF75DFD401B83
:101140006428F7D9032002B0BDE8F081706800F090
:101150000C00082803D17068C0033FF576AF6168C2
:101160003068002900F00C81B1F5A02F00F000815B
:10117000B1F5803F40F01A8140F480301CE100BF9F
:101180002069002840F20000C4F2422000F088806C
:1011900001210160FFF730FD054600BF3068800780
:1011A0003FF572AFFFF728FD401B0228F6D9032058
:1011B00002B0BDE8F08100BFE168306A002900F0AC
:1011C0009D80052900F09280012940F0AF8040F019
:1011D0000100B1E00020C4F242200021C0F88014D8
:1011E000FFF70AFD054600BF706A80077FF556AF1E
:1011F000FFF702FD401B0228F6D9032002B0BDE82C
:10120000F08100BF0027C4F2422700203866FFF7B4
:10121000F3FC022D05460DD13068800140F1DE80DF
:10122000FFF7EAFC401B02284FF00300F4D902B09C
:10123000BDE8F081306880014FD5FFF7DDFC401B31
:1012400002284FF00300F5D9F1E700BF40F2080093
:10125000C2F20000006844F6D351C1F26201A0FB63
:101260000101480A019000BF00BF0198411E0028FB
:1012700001913FF413AF00BF0198411E0028019176
:101280003FF40CAF00BF0198411E002801913FF4CC
:1012900005AF00BF0198411E00280191E4D1FDE691
:1012A00000210160FFF7A8FC054600BF30688007F9
:1012B0007FF5F1AEFFF7A0FC401B02284FF00300C2
:1012C000F4D9B4E77068216A00F480328A4209D107
:1012D000616A00F47010884204D1002002B0BDE8B9
:1012E000F08100BF012002B0BDE8F08140F00400B1
:1012F0003062306A40F001001EE000BF20F00100C3
:101300003062306A20F004003062FFF775FC054659
:1013100041F28837306A800720D5FFF76DFC401B0B
:10132000B8424FF00300F5D981E700BF20F001007B
:101330003062306A20F004003062FFF75DFC054641
:1013400041F28837306A800708D4FFF755FC401B0C
:10135000B842F7D9032002B0BDE8F081B8F1000F20
:101360003FF59FAEF06920F08050F06199E600BF34
:1013700040F480203060306840F480301CE000BFD2
:1013800020F480303060306820F480203060FFF737
:1013900033FC0546306880037FF55EAEFFF72CFC1A
:1013A000401B64284FF00300F4D940E720F480305C
:1013B0003060306820F480203060FFF71DFC054667
:1013C000306880033FF548AEFFF716FC401B6428E9
:1013D000F6D9032002B0BDE8F08100BF206AB0F565
:1013E000803F05D17168A26821F40031114371601A
:1013F0007168626A21F4741111430843706001201E
:101400003866FFF7F9FB0446306880013FF565AFA9
:10141000FFF7F2FB001B02284FF00300F4D906E7A8
:1014200070B528B1416A29B100210161142106E09B
:10143000012070BD4168B1F5827F02D01C210022DD
:1014400042500026866290F8511029B980F8506009
:10145000054600F039F82846022180F8511090E83E
:101460002E0002F482720C6803F4044324F040045A
:101470000C601A4405F4006305691A4405F0020380
:1014800045691A4405F001038569C4691A4405F4E5
:1014900000731A4404F03803046A1A4404F0800309
:1014A000846A1A4304F400531A430A60042202EACD
:1014B00015424A60CA6922F40062CA610121466588
:1014C00080F85110304670BD70B586B0006843F6A4
:1014D0000001C4F20001002588420595CDE90355BD
:1014E00002952BD043F20001C4F20101884255D18C
:1014F00041F21800C4F20200016802AA41F48051CE
:101500000160016802F10C0601F48051019101991A
:101510000168032541F004010160006800F0040047
:1015200001900198A02002900220039040F6004014
:10153000C4F20100A0F580642BE000BF41F2180066
:10154000C4F20200416840F6004441F48041416029
:101550004168C4F2010401F48041019101990268DB
:1015600002A942F008020260006801F1080600F0DA
:101570000800019001984FF420400290022003904F
:10158000032005902046FFF729FA4FF48040CDE96B
:10159000020502A920463560FFF720FA06B070BDAB
:1015A0002DE9F04182B0044690F85100012819D18C
:1015B00060681D4617460E46B0F5827F01D1A068CF
:1015C000A0B1FFF719FB8046002E4FF0010018BFB5
:1015D000002F03D102B0BDE8F08100BF94F85000A5
:1015E000012811D1022002B0BDE8F081042084F866
:1015F00051002046314632463B46009500F0CEF978
:1016000002B0BDE8F08100BF012084F85000042042
:10161000002184F851006165A663A787E7872163ED
:10162000A186E186A2682068B2F5004F216461645A
:1016300038D00168490640D5E168E08F002944D0E0
:1016400000287BD0681C0CD11BE000BFC068A16BD8
:1016500021F8020BA163E08F0138E087E08F0028BA
:101660006CD020688168C907F0D1FFF7C5FAA0EBFC
:101670000800A842F2D342E0FFF7BEFAE08F00284C
:101680005CD020688168C907F6D0C068A16B21F8DA
:10169000020BA163E08F0138E087E08F0028F0D1D2
:1016A0004CE000BF016821F040010160016821F4B5
:1016B0008041016001684906BED4016841F04001E3
:1016C0000160E168E08F0029BAD1B8B3681C0CD181
:1016D00024E000BF007BA16B0870A06B0130A06309
:1016E000E08F0138E087E08F40B320688168C90748
:1016F000F0D1FFF781FAA0EB0800A842F3D3012054
:1017000084F85100002084F85000032002B0BDE8A6
:10171000F08100BFFFF770FAE08F78B12068816830
:10172000C907F7D0007BA16B0870A06B0130A063E4
:10173000E08F0138E087E08F0028EFD16068B0F5D6
:10174000827F11D1A068B0F5004F02D0B0F5806F54
:101750000AD12168B0F5806F0A6822F040020A6061
:1017600002D12046012101E02046802100222B46A3
:10177000CDF8008001F0C8FB28B1606D40F020007A
:10178000606520206065012084F85100002084F805
:101790005000606D002818BF012002B0BDE8F08144
:1017A0002DE9F04182B01D4616460F460446FFF76C
:1017B00023FA94F8511001290ED18046002F4FF0E2
:1017C000010018BF002E03D102B0BDE8F08100BFB8
:1017D00094F85000012803D1022002B0BDE8F08146
:1017E000012084F850000320002184F85100616535
:1017F0002763A686E686A163A187E187A0682164A6
:10180000B0F5004F2068616407D1016821F0400104
:101810000160016841F4804101600168490603D418
:10182000016841F0400101606168731EE268B1FA2D
:1018300081F1B3FA83F349095B09B2F5006F41EA1C
:10184000030139D131B137F8021BC1602763E08E43
:101850000138E086E08E002870D0681C0BD11AE0B9
:10186000216B31F8022BC2602163E08E0138E086E3
:10187000E08E002862D0206881688907F0D4FFF7E5
:10188000BBF9A0EB0800A842F2D338E0FFF7B4F9A7
:10189000E08E002852D0206881688907F6D5216B38
:1018A00031F8022BC2602163E08E0138E086E08EC1
:1018B0000028F0D142E000BF39B139780173206BC4
:1018C00001302063E08E0138E086E08EB0B3681C02
:1018D0000BD123E0216B09780173206B0130206369
:1018E000E08E0138E086E08E40B320688168890789
:1018F000F0D4FFF781F9A0EB0800A842F3D3012050
:1019000084F85100002084F85000032002B0BDE8A4
:10191000F08100BFFFF770F9E08E78B12068816830
:101920008907F7D5216B09780173206B013020639B
:10193000E08E0138E086E08E0028EFD120460221BB
:1019400001222B46CDF8008001F0DEFA40B9204696
:10195000802100222B46CDF8008001F0D5FA28B175
:10196000606D40F02000606520206065A06838B997
:10197000002001902068C168019180680190019861
:10198000012084F85100002084F85000606D002888
:1019900018BF012002B0BDE8F08100002DE9F0433E
:1019A00083B01E4615460F460446FFF725F994F806
:1019B00051108146012909D1002F4FF0010018BFB5
:1019C000002D0FD103B0BDE8F08300BF6068B0F513
:1019D000827F0DD104294FF00200F3D1A1680029C4
:1019E000EAD0EFE7002EEDD094F85000012803D1A3
:1019F000022003B0BDE8F083012084F8500094F881
:101A00005100002104281CBF052084F851006165A5
:101A1000A563E687A6872763E6862068A6862164F5
:101A200061640168490603D4016841F04001016026
:101A30006168731EE268B1FA81F1B3FA83F3DDF8ED
:101A4000288049095B09B2F5006F41EA030165D1BD
:101A500031B137F8021BC1602763E08E0138E086A0
:101A6000012518F1010032D102E000BFFFF7C4F8F0
:101A7000E08E18B9E08F002800F0B88020688168F7
:101A800089070CD5E18E51B1012D08D1216B0025BC
:101A900031F8022BC2602163E18E0139E186816851
:101AA000C907E3D0E18F0029E0D0C068A16B012510
:101AB00021F8020BA163E08F0138E087D6E700BF71
:101AC000FFF79AF8A0EB0900404580F0AF80E08E68
:101AD00018B9E08F002800F08980206881688907A4
:101AE0000CD5E18E51B1012D08D1216B002531F8C3
:101AF000022BC2602163E18E0139E1868168C9074A
:101B0000DED0E18F0029DBD0C068A16B012521F870
:101B1000020BA163E08F0138E087D1E739B1397852
:101B20000173206B01302063E08E0138E0860125CF
:101B300018F1010032D101E0FFF75EF8E08E10B934
:101B4000E08F002852D02068816889070ED5E18E89
:101B500061B1012D0AD1216B002509780173216B38
:101B6000206801312163E18E0139E1868168C9076E
:101B7000E2D0E18F0029DFD0C068A16B0125087099
:101B8000A06B0130A063E08F0138E087D4E700BF8D
:101B9000FFF732F8A0EB0900404547D2E08E08B9C4
:101BA000E08F18B32068816889070ED5E18E61B196
:101BB000012D0AD1216B002509780173216B206862
:101BC00001312163E18E0139E1868168C907DFD0E7
:101BD000E18F0029DCD0C068A16B01250870A06BE3
:101BE0000130A063E08F0138E087D1E72046022171
:101BF00001224346CDF8009001F086F940B9204615
:101C0000802100224346CDF8009001F07DF9B8B163
:101C1000606D40F02000606520206065002084F841
:101C20005000012003B0BDE8F08300BF012084F81C
:101C30005100002084F85000032003B0BDE8F08379
:101C4000A06838B9002002902068C16802918068BD
:101C500002900298012084F85100002084F850007E
:101C6000606D002818BF012003B0BDE8F0830000BC
:101C70007047000070470000002804BF0120704733
:101C800010B590F83D1031B9002180F83C100446A1
:101C900000F070F82046022180F83D10016840F203
:101CA000FF740B68C4F2000442F6004CA142C4F277
:101CB000010C15DCB1F1804F1AD040F20042C4F2A1
:101CC0000002914214D0A14218DCB1F1804F1DD026
:101CD00040F20042C4F20002914217D01AE000BF65
:101CE000614505D040F60002C4F200029142EAD1FB
:101CF000826823F070031343A142E6DD614505D0FD
:101D000040F60002C4F20002914203D1026923F4BA
:101D100040731343846923F08002D0F804E0C36861
:101D2000224361450A60CB62C1F828E002D14269D2
:101D3000CCF8302001224A610B69DB0703D00B6924
:101D400023F001030B6180F8462080F83E2080F8E4
:101D50003F2080F8402080F8412080F8422080F821
:101D6000432080F8442080F8452080F83D20002062
:101D700010BD00007047000090F83D1001291CBF05
:101D800001207047022180F83D10006840F2FF7288
:101D9000C168C4F20002904241F00101C16009DC57
:101DA000B0F1804F12D040F20041C4F200018842ED
:101DB0000CD012E042F60041C4F20101884205D085
:101DC00040F60001C4F20001884206D1816801F0AA
:101DD0000701062904BF00207047016841F0010196
:101DE00001600020704700007047000070B5044695
:101DF0000068C5680669B10716D515F0020113D051
:101E00006FF002010161012121778069800703D011
:101E10002046FFF7E9FF05E0204600F08FF8204656
:101E200000F08EF800202077700719D515F0040017
:101E300016D020686FF004010161022121778069CA
:101E400010F4407F04D02046FFF7CEFF06E000BF2D
:101E5000204600F073F8204600F072F8002020774A
:101E6000300717D515F0080014D020686FF008016E
:101E7000016104212177C069800703D02046FFF764
:101E8000B3FF05E0204600F059F8204600F058F86E
:101E900000202077F00619D515F0100016D0206824
:101EA0006FF01001016108212177C06910F4407FB3
:101EB00004D02046FFF798FF06E000BF204600F060
:101EC0003DF8204600F03CF800202077F00718BFCE
:101ED00015F0010002D1300609D412E020686FF03D
:101EE00001010161204600F02DF8300609D515F0FA
:101EF000800006D020686FF0800101612046FFF766
:101F0000B7FE700609D515F0400006D020686FF0C6
:101F100040010161204600F01FF8B00658BF70BDB7
:101F200015F0200008D021686FF0200220460A61D9
:101F3000BDE87040FFF79EBE70BD00007047000016
:101F400070470000006842F60041C4F20101884277
:101F500018BF7047FEF756BE70470000704700007C
:101F600070470000B0B582B001680A68CC684B6960
:101F700002F02F05202D04F0200505D125B102B077
:101F8000BDE8B04001F076B85FEA027C1EBF03F006
:101F9000010E04F4907313EB0E0341D1036BD506CD
:101FA00018D5012B16D114F0100313D00022019282
:101FB0000A6801924A680192019A496949064BD41C
:101FC000818DC28DC38D002B18BF914240F0F481EA
:101FD00002B0B0BD13062DD514F080032AD090F8BE
:101FE0004120212AF4D18268B2F5805F03D10269D1
:101FF000002A00F06782026A531C036212784A606A
:10200000C28C013A1304C284E2D1C86820F0800077
:10201000C860C86840F04000C86002B0B0BD00BFF2
:10202000D30718BF14F4807340F0D080530700F139
:10203000D380D8E05206CBD514F04002C8D0CA688D
:1020400022F04002CA60202180F8411002B0BDE8B1
:10205000B04000F0C5BB00BFC16B0A68526893B2C4
:10206000002BB5D0858DAB42B2D2C28589692029BB
:1020700000F0A180016851E8031F026821F480711B
:1020800042E80313DBB1016851E8031F026821F441
:10209000807142E8031393B1016851E8031F02689D
:1020A00021F4807142E803134BB1016851E8031F2A
:1020B000026821F4807142E80313002BDAD1016831
:1020C00051E8051F026821F0010142E80513C3B37E
:1020D000016851E8051F026821F0010142E805137B
:1020E0007BB3016851E8051F026821F0010142E855
:1020F000051333B3016851E8051F026821F001019F
:1021000042E80513002BDAD11BE000BF016851E85B
:10211000051F026821F0400142E80513DBB10168A8
:1021200051E8051F026821F0400142E8051393B110
:10213000016851E8051F026821F0400142E80513DB
:102140004BB1016851E8051F026821F0400142E8E7
:102150000513002BDAD1202180F842100021016301
:10216000016851E8031F026821F0100142E80313DF
:10217000DBB1016851E8031F026821F0100142E859
:10218000031393B1016851E8031F026821F01001A5
:1021900042E803134BB1016851E8031F026821F0C4
:1021A000100142E80313002BDAD1C16B0446084644
:1021B000FEF780FB204602214163818DC28D891A82
:1021C00089B202B0BDE8B040FFF7C8BE436C43F02F
:1021D00001034364530706D5BEF1000F03D0436CDF
:1021E00043F002034364930706D5BEF1000F03D00A
:1021F000436C43F004034364BCF1000F06D55EEA70
:10220000050303D0436C43F008034364436C002B85
:102210003FF4DEAE920605D525B1044600F02AFF54
:10222000216820464969426C01F0400102F0080231
:10223000891800F0B98000BF016851E8031F0268E7
:1022400021F4907142E80313BBB3016851E8031F06
:10225000026821F4907142E8031373B3016851E8F6
:10226000031F026821F4907142E803132BB3016845
:1022700051E8031F026821F4907142E80313002B18
:10228000DAD11AE0016851E8051F026821F0010166
:1022900042E80513DBB1016851E8051F026821F02F
:1022A000010142E8051393B1016851E8051F026876
:1022B00021F0010142E805134BB1016851E8051F07
:1022C000026821F0010142E80513002BDAD1016B0D
:1022D000012924D1016851E8031F026821F010018F
:1022E00042E80313DBB1016851E8031F026821F0E3
:1022F000100142E8031393B1016851E8031F02681B
:1023000021F0100142E803134BB1016851E8031FAB
:10231000026821F0100142E80313002BDAD12021DA
:1023200080F842100021016301684969490640F1C3
:10233000C380016851E8051F026821F0400142E8AE
:102340000513DBB1016851E8051F026821F0400167
:1023500042E8051393B1016851E8051F026821F0B6
:10236000400142E805134BB1016851E8051F0268BE
:1023700021F0400142E80513002BDAD1C16B00299E
:1023800000F09A8043F26902C0F600020446084653
:102390004A63FEF7B3FA00283FF41AAEE06B416BD4
:1023A00002B0BDE8B04008470446FFF7D9FD002061
:1023B000606402B0B0BD00BF891A00BF026852E875
:1023C000032F036822F4907243E80325BDB302682B
:1023D00052E8032F036822F4907243E8032575B393
:1023E000026852E8032F036822F4907243E8032541
:1023F0002DB3026852E8032F036822F4907243E879
:102400000325002DDAD11AE0026852E8052F03688F
:1024100022F0010243E80525DDB1026852E8052FEC
:10242000036822F0010243E8052595B1026852E8ED
:10243000052F036822F0010243E805254DB102682B
:1024400052E8052F036822F0010243E80525002D1C
:10245000DAD1202280F8422000220263026852E88A
:10246000032F036822F0100243E80325DDB1026860
:1024700052E8032F036822F0100243E8032595B1C8
:10248000026852E8032F036822F0100243E8032594
:102490004DB1026852E8032F036822F0100243E8AE
:1024A0000325002DDAD1022289B2426302B0BDE8D1
:1024B000B040FFF753BD00BF02B0BDE8B040FFF72A
:1024C0004FBD00BF026A32F8023B6FF35F234B60DF
:1024D000026295E5002804BF0120704710B504464C
:1024E00090F8410028B9002084F84000204600F010
:1024F00063F8242084F841002068D4E90212C368FC
:1025000023F40053C360036923F440531A43026168
:10251000D4E904231143C268194341F20C639A437E
:102520001143C1604169A26921F44071114343F62E
:102530000002C4F201029042416103D0FEF748FD5F
:1025400002E000BFFEF758FDD4E9002319214843FB
:102550009900B0FBF1F048F21F5CC5F2EB1CA0FB48
:102560000C314FF69C734909C0F6FF7301FB030061
:10257000322303EB0010A0FB0C03F02000EA531001
:1025800000EB0110C3F3431108449060106920214F
:1025900020F490401061506920F02A005061D0680A
:1025A00040F40050D0600020606484F8411084F84A
:1025B0004210606310BD000070B586B040F60004A4
:1025C000C4F20104006804F54051002688420596D3
:1025D000CDE90366029601D006B070BD41F2180045
:1025E000C4F20200016802AD41F48041016001685B
:1025F00001F4804101910199016841F004010160F9
:102600000068294600F00400019001984FF4007022
:10261000029002200390032005902046FEF7DEF989
:102620004FF48060CDE90206204629460496FEF765
:10263000D5F9252000210022FEF78EFB2520FEF78C
:1026400079FB06B070BD0000704700002DE9F04333
:1026500081B0044690F84100202809D100294FF0AC
:10266000010018BF002A07D101B0BDE8F08300BF08
:10267000022001B0BDE8F0830020606421201D46E7
:102680000E4684F841001746FEF7B6FAA784E784A1
:10269000A1688146B1F5805F02D1206900285DD034
:1026A00037460020E28C2168002A5DD06A1C24D0C5
:1026B000002D4AD0804600BF0868000608D4FEF707
:1026C0009BFAA0EB0900A8427AD82168C868F3E712
:1026D00017B117F8010B04E038F8020B00276FF36D
:1026E0005F204860E08C0138E084E08C0028E3D172
:1026F0003AE000BF0A68120609D40A68120606D436
:102700000A6812065CBF0A685FEA0262F2D51FB16E
:1027100017F8012B05E000BF30F8022B00276FF3FC
:102720005F224A60E28C013AE284E28C002AE4D122
:102730001AE000BF30F8022B00276FF35F224A60D7
:10274000E28C013AE284E28C72B10A68120635D555
:10275000002FEFD017F8012BF1E700BF002730461C
:10276000E28C2168002AA1D1086840061ED42DB34E
:10277000681C14D1086840062AD40868400627D48B
:102780000868400624D4086840064FF00000F1D5E0
:102790000DE000BF2068C1680068400618D4FEF74D
:1027A0002BFAA0EB0900A842F4D909E0002020216F
:1027B00084F8411001B0BDE8F08300BFFEF71CFAB9
:1027C0000320202184F8411001B0BDE8F08300BF50
:1027D0000020202184F8411001B0BDE8F083000002
:1027E00070470000FEE700002DE9F047ADF5007DE1
:1027F00040F600480446C4F2010802FB03F0164606
:102800008946470040464FF4807100221D46FEF77E
:10281000EDF9A01909EB05010138013982B28BB23B
:102820002046494600F0F0FA404640210122FEF7DA
:10283000DDF9F7B1DDF8209240F2700A00266D460E
:10284000C2F2000A3C46B7F5007F28BF4FF400747F
:1028500009EB1620F1B222462B4600F093FC5046BD
:10286000294622464FF0FF33FEF79AFF3F1B2644CE
:10287000E8D140464FF480710122FEF7B7F90DF51B
:10288000007DBDE8F08700002DE9F04184B040F6FE
:102890000044C4F2010420464FF480710022002756
:1028A000FEF7A4F9204680210022FEF79FF90520BB
:1028B000FEF780F82046802101224FF00108FEF744
:1028C00095F92046402100228DF80080FEF78EF910
:1028D00040F27005C2F200056946284601224FF019
:1028E000FF33FEF75DFF4FF47A70FEF763F8CB20FD
:1028F0008DF80000204640210022FEF777F9694656
:10290000284601224FF0FF33FEF74AFF02200190D4
:1029100042F63940C3F20040009020464021012297
:10292000FEF764F96946284605224FF0FF33FEF7AB
:1029300037FFCF208DF80000204640210022FEF70F
:1029400055F96946284601224FF0FF33FEF728FF6C
:102950004CF20010C0F230000090204640210122CD
:10296000FEF744F96946284603224FF0FF33FEF78D
:1029700017FFE8208DF80000204640210022FEF7D6
:1029800035F96946284601224FF0FF33FEF708FF6C
:102990008520C0F278000090204640210122FEF7F9
:1029A00025F96946284603224FF0FF33FEF7F8FE6B
:1029B000EA208DF80000204640210022FEF716F99B
:1029C0006946284601224FF0FF33FEF7E9FE204614
:1029D00040210122ADF80070FEF708F9694628464B
:1029E00002224FF0FF33FEF7DBFEED208DF80000F2
:1029F000204640210022FEF7F9F8694628460122C8
:102A00004FF0FF33FEF7CCFE40F26430C8F21210F4
:102A10000090204640210122FEF7E8F8694628464A
:102A200004224FF0FF33FEF7BBFEF7208DF80000C5
:102A3000204640210022FEF7D9F8694628460122A7
:102A40004FF0FF33FEF7ACFE20208DF8000020464B
:102A500040210122FEF7CAF86946284601224FF0BC
:102A6000FF33FEF79DFEC0208DF800002046402178
:102A70000022FEF7BBF86946284601224FF0FF33DB
:102A8000FEF78EFE23208DF8000020464021012213
:102A9000FEF7ACF86946284601224FF0FF33FEF7F7
:102AA0007FFEC1208DF80000204640210022FEF765
:102AB0009DF86946284601224FF0FF33FEF770FE6D
:102AC00010208DF80000204640210122FEF78EF8EC
:102AD0006946284601224FF0FF33FEF761FEC5200C
:102AE0008DF80000204640210022FEF77FF869465D
:102AF000284601224FF0FF33FEF752FE42F63E0019
:102B0000ADF80000204640210122FEF76FF869462B
:102B1000284602224FF0FF33FEF742FEC7208DF811
:102B20000000204640210022FEF760F86946284652
:102B300001224FF0FF33FEF733FE86208DF80000B0
:102B4000204640210122FEF751F86946284601221D
:102B50004FF0FF33FEF724FE3626204640210022A8
:102B60008DF80060FEF742F86946284601224FF0D2
:102B7000FF33FEF715FE48208DF800002046402167
:102B80000122FEF733F86946284601224FF0FF3351
:102B9000FEF706FE3A208DF8000020464021002274
:102BA000FEF724F86946284601224FF0FF33FEF76E
:102BB000F7FD55208DF80000204640210122FEF748
:102BC00015F86946284601224FF0FF33FEF7E8FD6D
:102BD000B1208DF80000204640210022FEF706F8C3
:102BE0006946284601224FF0FF33FEF7D9FD4FF426
:102BF000C050ADF80000204640210122FDF7F6FF4D
:102C00006946284602224FF0FF33FEF7C9FDB62081
:102C10008DF80000204640210022FDF7E7FF6946BD
:102C2000284601224FF0FF33FEF7BAFD48F2082094
:102C3000C0F227000090204640210122FDF7D6FF78
:102C40006946284603224FF0FF33FEF7A9FDF22024
:102C50008DF80000204640210022FDF7C7FF69469D
:102C6000284601224FF0FF33FEF79AFD204640210F
:102C700001228DF80070FDF7B9FF69462846012250
:102C80004FF0FF33FEF78CFD26208DF80000204624
:102C900040210022FDF7AAFF6946284601224FF095
:102CA000FF33FEF77DFD2046402101228DF8008094
:102CB000FDF79CFF6946284601224FF0FF33FEF7DF
:102CC0006FFDE0208DF80000204640210022FDF736
:102CD0008DFF6946284601224FF0FF33FEF760FD65
:102CE00040F60E10039040F23770C0F210300290A0
:102CF00040F60E00CFF24E10019043F20F10C0F6D6
:102D00002B400090204640210122FDF76FFF6946CD
:102D100028460F224FF0FF33FEF742FDE1208DF8E9
:102D20000000204640210022FDF760FF694628464A
:102D300001224FF0FF33FEF733FD43F23160C0F262
:102D40000F00039040F64800C0F60F40029040F29A
:102D50001170CCF23110019040F60060C0F21430D6
:102D60000090204640210122FDF740FF6946284699
:102D70000F224FF0FF33FEF713FD11208DF80000F6
:102D8000204640210022FDF731FF694628460122F6
:102D90004FF0FF33FEF704FD7820FDF70BFE2920EE
:102DA0008DF80000204640210022FDF71FFF6946F4
:102DB000284601224FF0FF33FEF7F2FC2046402167
:102DC00000228DF80060FDF711FF694628460122B8
:102DD0004FF0FF33FEF7E4FC88208DF8000020461A
:102DE00040210122FDF702FF6946284601224FF0EB
:102DF000FF33FEF7D5FC20464FF480710122FDF72A
:102E0000F5FE04B0BDE8F0812DE9F04383B040F653
:102E1000004805462A20C4F2010814460F468DF8E2
:102E200009004046402100221E46FDF7DFFE40F229
:102E30007009C2F200090DF10901484601224FF064
:102E4000FF33FEF7ADFC280A8DF80500200A8DF847
:102E500007004046402101228DF806508DF80840B9
:102E6000FDF7C4FE0DF10501484604224FF0FF3383
:102E7000FEF796FC2B208DF80A00404640210022E8
:102E8000FDF7B4FE0DF10A01484601224FF0FF3371
:102E9000FEF786FC380A8DF80100300A8DF8030031
:102EA0004046402101228DF802708DF80460FDF744
:102EB0009DFE0DF10101484604224FF0FF33FEF75D
:102EC0006FFC2C208DF80B00404640210022FDF7BE
:102ED0008DFE0DF10B01484601224FF0FF33FEF746
:102EE0005FFC03B0BDE8F08340F60040C4F201008F
:102EF0004FF480710122FDF779BE0000FEE700006B
:102F0000FEE70000704700002DE9F04381B0089C07
:102F1000984615460E468146FDF76EFE201A00EBD8
:102F20000804FDF769FE40F20801C2F200010968D9
:102F3000C1F3CB3161430091D9F800108A68324067
:102F4000921BB2FA82F2520995423DD0074618F11F
:102F5000010031D0FDF750FEC01BA04238D20098CE
:102F600000990028A1F101010091D9F800108968A9
:102F700008BF044601EA0600801BB0FA80F0400951
:102F80008542E7D120E000BF88683040801BB0FA5E
:102F900080F04009854217D088683040801BB0FA25
:102FA00080F0400985420FD088683040801BB0FA1D
:102FB00080F04009854207D088683040801BB0FA15
:102FC00080F040098542DFD1002001B0BDE8F083E8
:102FD000D9E900014268B1F5827F22F0E002426047
:102FE0000BD1D9F80810B1F5004F02D0B1F5806FC0
:102FF00003D1016821F040010160D9F82810B1F532
:10300000005F07D1016821F400510160016841F4BB
:1030100000510160012089F85100002089F850001A
:10302000032001B0BDE8F083704700007047000046
:103030007047000040F22010C2F20000FEF7D6BE3A
:10304000002808BF704710B50446FDF74BFA82B25E
:1030500040F26810C2F2000021464FF0FF33BDE895
:103060001040FFF7F3BA0000406A0021C185C18417
:10307000FEF776BF81B090F84210222921D18368F3
:103080000246B3F5805F09D152F8281F52F8183C68
:10309000002B63D003685B680AE000BF52F8281F6A
:1030A00013B90369002BF5D003685B6803F07F0355
:1030B0000B70116801311160C18D01390A04C1859D
:1030C00002D001B0704700BF0168CA6822F0200238
:1030D000CA60CA6822F48072CA604A6922F001029A
:1030E0004A61202180F8421000214163026B012ACD
:1030F0003CD10163016851E8031F026821F010010F
:1031000042E80313DBB1016851E8031F026821F0B4
:10311000100142E8031393B1016851E8031F0268EC
:1031200021F0100142E803134BB1016851E8031F7D
:10313000026821F0100142E80313002BDAD1016884
:103140000A68D20606D5002200920A6800924968F1
:1031500000910099818D01B0FEF700BF02685268AE
:103160006FF35F2221F8022B8162A5E701B0FFF720
:103170006BBA000040F26810C2F20000FEF7F2BE27
:10318000FEE70000F0B583B01546032240F6004686
:103190008DF80720020AC4F201068DF808208DF888
:1031A00009008DF80A1030464FF4805100221C4669
:1031B000FDF71CFD40F2C807C2F200070DF1070140
:1031C000384604224FF4FA63FEF7EAFAAAB2384608
:1031D000214641F28833FEF7E3F930464FF480513F
:1031E0000122FDF703FD03B0F0BD000010B582B071
:1031F00040F6004449F66610C4F20104ADF806003A
:1032000020464FF480510022FDF7F0FC40F2C80048
:10321000C2F200000DF1060102224FF47A73FEF7AC
:10322000BFFA20464FF480510122FDF7DFFC6420F5
:10323000FDF7C0FB02B010BD2DE9F04FCBB00191FE
:10324000114440F600450091013940F2C804C4F22F
:1032500001054FEA112B4FEA101AC2F2000408AF21
:103260004FF005080DF22B164FF00009069303925C
:103270000291079008E000BF09F101091FFA89F0E7
:1032800083450AF1010A5DD306208DF82000284607
:103290004FF480510022FDF7A9FC20463946012257
:1032A0004FF4FA63FEF77CFA28464FF4805101226E
:1032B000FDF79CFC0520FDF77DFB20208DF820000C
:1032C0004FEA1A108DF821004FEA0A108DF82200FB
:1032D00000208DF8230028464FF480510022FDF78E
:1032E00085FC2046394604224FF4FA63FEF758FA6B
:1032F00028464FF480510122FDF778FC28464FF410
:10330000805100228DF82080FDF770FC2046394660
:1033100001224FF4FA63FEF743FA204631460122B8
:1033200041F28833FEF73CF928464FF480510122E0
:10333000FDF75CFC9DF82B01C0079DD00120FDF737
:1033400039FBDBE707F1640004900098DDF80CA07E
:1033500007F10408DDF81C90019FB0F5807F54460A
:103360004FF0060028BFC7F580748DF82B01284662
:103370004FF48051002207EB0926FDF737FC40F29D
:10338000C800C2F200000DF22B1101224FF4FA63C3
:10339000FEF706FA28464FF480510122FDF726FC7D
:1033A0000520FDF707FB02208DF82000300C8DF87A
:1033B0002100300AA6B28DF8237004F104078DF8BD
:1033C000220026B1069940463246FDF7AAF8BCB263
:1033D000FA2C28464FF480514FF00002CDF81480AB
:1033E00012D9FDF703FC40F2C804C2F2000408A998
:1033F000204664224FF4FA63FEF7D2F9A7F1640085
:103400000499C2B2204607E0FDF7F0FB40F2C80085
:10341000C2F2000008A922464FF4FA63FEF7C0F991
:1034200028464FF480510122FDF7E0FB0520FDF70F
:10343000C1FA04208DF82B0128464FF48051002258
:10344000FDF7D4FB40F2C800C2F200000DF22B11D0
:1034500001224FF4FA63FEF7A3F928464FF4805196
:103460000122FDF7C3FB0520FDF7A4FA0298B0F591
:10347000807F03D24BB0BDE8F08F00BF40F2C8049C
:10348000AAEB060809F10109C2F200040DF22B179C
:103490003CE000BF28464FF480510022FDF7A6FB18
:1034A000BAB25C46584608A94FF4FA63FEF778F9B9
:1034B00028464FF480510122FDF798FB0520A8EB28
:1034C0000A085644FDF776FA04208DF82B012846A9
:1034D0004FF480510022FDF789FB0DF22B17204697
:1034E000394601224FF4FA63FEF75AF928464FF4A1
:1034F00080510122FDF77AFB0520FDF75BFADDF82C
:103500001CB009F10109BBF1010BB3D0C246062082
:10351000CDF81CB0B8F5807F28BF4FF4807A8DF8C5
:103520002B0128464FF480510022FDF75FFB204617
:10353000394601224FF4FA63A346FEF731F92846D3
:103540004FF480510122FDF751FB0520FDF732FABF
:1035500002208DF820004FEA19208DF8210000206C
:10356000B8F1000F0AF104078DF822908DF82300BE
:1035700090D00698524681190598FCF7D2FFB8F111
:10358000F70F87D328464FF480510022FDF72EFB1A
:10359000584608A964224FF4FA63FEF701F9A7F12F
:1035A000640004995C46C2B258467DE790B0FDF7CE
:1035B00037FB00240120CDE90B44CDE909440690F6
:1035C0000A904FF4E0104FF4803102260F9006A8C5
:1035D000CDE90714CDE90D61FDF722FD20B1EFF330
:1035E000108072B6FEE700BF4FF480600F25CDE972
:1035F000040401A80221CDE901560394FDF7E8FB7C
:1036000020B1EFF3108072B6FEE700BF002641F252
:103610001800CDE90866CDE90666C4F2020001682B
:1036200040F6004841F0200101600168C4F2010841
:1036300001F02001019101990168002241F004018B
:10364000016001684FF48F5701F004010191019965
:10365000016841F00801016000684FF48F5100F0EB
:103660000800019001984046FDF7C0FACDE90656E2
:1036700006AD0124A8F5806029460894FDF7AEF94F
:103680000220099040462946CDE906740896FDF7C8
:10369000A5F940F2700008F51051C2F200004FF495
:1036A00082724FF40073202780E846000A21C0E9A7
:1036B0000366C0E90563C761C0E90866C0E90A613D
:1036C000FDF7AEFE20B1EFF3108072B6FEE700BF4B
:1036D00040F2681008F53051C2F200000C234FF49C
:1036E000165280E84600C0E90366C0E90536C661A7
:1036F000FEF7F0FE20B1EFF3108072B6FEE700BFD8
:1037000040F2C800A8F55441C2F200004FF48272A2
:1037100000254FF40073202780E826000A21C0E925
:103720000355C0E90553C761C0E90855C0E90A510E
:10373000FDF776FE20B1EFF3108072B6FEE700BF12
:10374000FFF754FD404620210122FDF74FFA0120EA
:10375000FDF730F9FFF7C8FBFFF796F840F20C00D1
:10376000C2F200000321FDF71FF843F2C773C0F651
:103770000003002000210422FFF75EFD00205021FD
:10378000F02228230095FFF72FF800BFFEE730381E
:103790000A2801D201207047002070470400000869
:1037A0000000000000000002000100001000000006
:1037B00000000000000102030406070809000000E1
:1037C00000010203040102FFFFFFFFFFFFFFFFFFF5
:1037D000FFFFFFFFFFFFFFFFFFFFFFFFFFFFFFFFF9
:1037E000FFFFFFFFFFFFFFFFFFFFFFFFFFFFFFFFE9
:1037F000FFFFFFFFFFFFFFFFFFFFFFFFFFFFFFFFD9
:10380000FFFFFFFFFFFFFFFFFFFFFFFFFFFFFFFFC8
:1086A000FFFFFFFFFFFFFEF7DDEFDDD73BD73BD737
:1086B0003BD73BD73BD73BEFDDEFDDFFFFFFFFFFB6
:1086C000FFFFFFFFFFFFFFFFFFFFFFFFFFFFFFFFBA
:1086D000FFFFFFFFFFFFFFFFFFFFFFFFFFFFFFFFAA
:1086E000FFFFFFFFFFFFFFFFFFFFFFFFFFFFFFFF9A
:1086F000FFFFFFFFFFFFFFFFFFFFFFFFFFFFFFFF8A
:10870000FFFFFFFFFFFFFFFFFFFFFFFFFFFFFFFF79
:10871000FFFFFFFFFFFFFFFFFFFFFFFFFFFFFFFF69
:10872000FFFFFFFFFFFFFFFFFFFFFFFFFFFFFFFF59
:10873000FFFFFFFFFFFFFFFFFFFFFFFFFFFFFFFF49
:10874000FFFFFFFFFFFFFFFFFFFFFFFFFFFFFFFF39
:10875000FFFFFFFFFFFFFFFFFFFFFFFFFFFFFFFF29
:10876000FFFFFFFFFFFFFFFFFFFFFFFFFFFFFFFF19
:10877000FFFFFFFFFFFFFFFFFFFFFFFFFFFFFFFF09
:10878000FFFFFFFFFFFFFFFFFFFFFFFFFFFFFFFFF9
:10879000FFFFFFFFFFFFFFFFFFFFFFFFFFFFFFFFE9
:1087A000FFFFFFFFFFFFFFFFFFFFFFFFFFFFFFFFD9
:1087B000FFFFFFFFFFFFFFFFFFFFFFFFFFFFFFFFC9
:1087C000FFFFFFFFFFFFFFFFFFFFFFFFFFFFFFFFB9
:1087D000FFFFFFFFFFFFFFFFFFFFFFFFFFFFFFFFA9
:1087E000FFFFFFFFFFFFFFFFFFFFFFFFFFFFFFFF99
:1087F000FFFFFFFFFFFFFFFFFFFFFFFFFFFFFFFF89
:10880000FFFFFFFFFFFFFFFFFFFFFFFFFFFFFFFF78
:10881000FFFFFFFFFFFFFFFFFFFFFFFFFFFFFFFF68
:10882000FFFFFFFFFFFFFFFFFFFFFFFFFFFFFFFF58
:10883000FFFFFFFFFFFFFFFFFFFFFFFFFFFFFFFF48
:10884000FFFFFFFFFFFFFFFFFFFFFFFFFFFFFFFF38
:10885000FFFFFFFFFFFFFFEFDDD77B9E9575F15D0B
:108860008F3D0C352A1CE91CE924E824E824E8247F
:10887000E81D091CE9352A3D0C65AF75F1AE96D7A8
:108880007BEFDDFFFFFFFFFFFFFFFFFFFFFFFFFFAE
:10889000FFFFFFFFFFFFFFFFFFFFFFFFFFFFFFFFE8
:1088A000FFFFFFFFFFFFFFFFFFFFFFFFFFFFFFFFD8
:1088B000FFFFFFFFFFFFFFFFFFFFFFFFFFFFFFFFC8
:1088C000FFFFFFFFFFFFFFFFFFFFFFFFFFFFFFFFB8
:1088D000FFFFFFFFFFFFFFFFFFFFFFFFFFFFFFFFA8
:1088E000FFFFFFFFFFFFFFFFFFFFFFFFFFFFFFFF98
:1088F000FFFFFFFFFFFFFFFFFFFFFFFFFFFFFFFF88
:10890000FFFFFFFFFFFFFFFFFFFFFFFFFFFFFFFF77
:10891000FFFFFFFFFFFFFFFFFFFFFFFFFFFFFFFF67
:10892000FFFFFFFFFFFFFFFFFFFFFFFFFFFFFFFF57
:10893000FFFFFFFFFFFFFFFFFFFFFFFFFFFFFFFF47
:10894000FFFFFFFFFFFFFFFFFFFFFFFFFFFFFFFF37
:10895000FFFFFFFFFFFFFFFFFFFFFFFFFFFFFFFF27
:10896000FFFFFFFFFFFFFFFFFFFFFFFFFFFFFFFF17
:10897000FFFFFFFFFFFFFFFFFFFFFFFFFFFFFFFF07
:10898000FFFFFFFFFFFFFFFFFFFFFFFFFFFFFFFFF7
:10899000FFFFFFFFFFFFFFFFFFFFFFFFFFFFFFFFE7
:1089A000FFFFFFFFFFFFFFFFFFFFFFFFFFFFFFFFD7
:1089B000FFFFFFFFFFFFFFFFFFFFFFFFFFFFFFFFC7
:1089C000FFFFFFFFFFFFFFFFFFFFFFFFFFFFFFFFB7
:1089D000FFFFFFFFFFFFFFFFFFFFFFFFFFFFFFFFA7
:1089E000FFFFFFFFFFFFFFFFFFFFFFFFFFFFFFFF97
:1089F000FFFFFFFFFFFFFFFFFFFFFFFFFFFFFFFF87
:108A0000FFFFFFFFFFFFFFFFFFFFFFFFFFCF399ECD
:108A100034658E1CE91D093D2A1D09352A352A3584
:108A20000B350B352A3D2A3D2A3D2A3D2A3D2A3D5C
:108A30002A3D2A350B352A2D2A1CE91D0934CA6521
:108A4000AF9E95D77BFFFFFFFFFFFFFFFFFFFFFFFD
:108A5000FFFFFFFFFFFFFFFFFFFFFFFFFFFFFFFF26
:108A6000FFFFFFFFFFFFFFFFFFFFFFFFFFFFFFFF16
:108A7000FFFFFFFFFFFFFFFFFFFFFFFFFFFFFFFF06
:108A8000FFFFFFFFFFFFFFFFFFFFFFFFFFFFFFFFF6
:108A9000FFFFFFFFFFFFFFFFFFFFFFFFFFFFFFFFE6
:108AA000FFFFFFFFFFFFFFFFFFFFFFFFFFFFFFFFD6
:108AB000FFFFFFFFFFFFFFFFFFFFFFFFFFFFFFFFC6
:108AC000FFFFFFFFFFFFFFFFFFFFFFFFFFFFFFFFB6
:108AD000FFFFFFFFFFFFFFFFFFFFFFFFFFFFFFFFA6
:108AE000FFFFFFFFFFFFFFFFFFFFFFFFFFFFFFFF96
:108AF000FFFFFFFFFFFFFFFFFFFFFFFFFFFFFFFF86
:108B0000FFFFFFFFFFFFFFFFFFFFFFFFFFFFFFFF75
:108B1000FFFFFFFFFFFFFFFFFFFFFFFFFFFFFFFF65
:108B2000FFFFFFFFFFFFFFFFFFFFFFFFFFFFFFFF55
:108B3000FFFFFFFFFFFFFFFFFFFFFFFFFFFFFFFF45
:108B4000FFFFFFFFFFFFFFFFFFFFFFFFFFFFFFFF35
:108B5000FFFFFFFFFFFFFFFFFFFFFFFFFFFFFFFF25
:108B6000FFFFFFFFFFFFFFFFFFFFFFFFFFFFFFFF15
:108B7000FFFFFFFFFFFFFFFFFFFFFFFFFFFFFFFF05
:108B8000FFFFFFFFFFFFFFFFFFFFFFFFFFFFFFFFF5
:108B9000FFFFFFFFFFFFFFFFFFFFFFFFFFFFFFFFE5
:108BA000FFFFFFFFFFFFFFFFFFFFFFFFFFFFFFFFD5
:108BB000FFFFFFFFFFFFFFFFFFFFFFFFFFFFFFFFC5
:108BC000FFFFFFCF39861334CA1D091D092D2A3531
:108BD0002A3D2A352A352A352A350B350B350B35F2
:108BE0002A352A352A352A352A352A352A352A358D
:108BF0002A352A352A350B352A2D2A3D2A35291DB5
:108C0000094D6D9654D77BFFFFFFFFFFFFFFFFFF6E
:108C1000FFFFFFFFFFFFFFFFFFFFFFFFFFFFFFFF64
:108C2000FFFFFFFFFFFFFFFFFFFFFFFFFFFFFFFF54
:108C3000FFFFFFFFFFFFFFFFFFFFFFFFFFFFFFFF44
:108C4000FFFFFFFFFFFFFFFFFFFFFFFFFFFFFFFF34
:108C5000FFFFFFFFFFFFFFFFFFFFFFFFFFFFFFFF24
:108C6000FFFFFFFFFFFFFFFFFFFFFFFFFFFFFFFF14
:108C7000FFFFFFFFFFFFFFFFFFFFFFFFFFFFFFFF04
:108C8000FFFFFFFFFFFFFFFFFFFFFFFFFFFFFFFFF4
:108C9000FFFFFFFFFFFFFFFFFFFFFFFFFFFFFFFFE4
:108CA000FFFFFFFFFFFFFFFFFFFFFFFFFFFFFFFFD4
:108CB000FFFFFFFFFFFFFFFFFFFFFFFFFFFFFFFFC4
:108CC000FFFFFFFFFFFFFFFFFFFFFFFFFFFFFFFFB4
:108CD000FFFFFFFFFFFFFFFFFFFFFFFFFFFFFFFFA4
:108CE000FFFFFFFFFFFFFFFFFFFFFFFFFFFFFFFF94
:108CF000FFFFFFFFFFFFFFFFFFFFFFFFFFFFFFFF84
:108D0000FFFFFFFFFFFFFFFFFFFFFFFFFFFFFFFF73
:108D1000FFFFFFFFFFFFFFFFFFFFFFFFFFFFFFFF63
:108D2000FFFFFFFFFFFFFFFFFFFFFFFFFFFFFFFF53
:108D3000FFFFFFFFFFFFFFFFFFFFFFFFFFFFFFFF43
:108D4000FFFFFFFFFFFFFFFFFFFFFFFFFFFFFFFF33
:108D5000FFFFFFFFFFFFFFFFFFFFFFFFFFFFFFFF23
:108D6000FFFFFFFFFFFFFFFFFFFFFFFFFFFFFFFF13
:108D7000FFFFFFFFFFFFFFFFFFFFFFAE964D4D1C04
:108D8000E92D2A352A352A352A352A352A352A3534
:108D90002A350B350B350B350B350B350B352A3595
:108DA0002A352A352A352A352A352A350B350B3509
:108DB0002A352A352A352A352A352A352A352A3DB3
:108DC0002A1CE965AFC718FFFEFFFFFFFFFFFFFF8B
:108DD000FFFFFFFFFFFFFFFFFFFFFFFFFFFFFFFFA3
:108DE000FFFFFFFFFFFFFFFFFFFFFFFFFFFFFFFF93
:108DF000FFFFFFFFFFFFFFFFFFFFFFFFFFFFFFFF83
:108E0000FFFFFFFFFFFFFFFFFFFFFFFFFFFFFFFF72
:108E1000FFFFFFFFFFFFFFFFFFFFFFFFFFFFFFFF62
:108E2000FFFFFFFFFFFFFFFFFFFFFFFFFFFFFFFF52
:108E3000FFFFFFFFFFFFFFFFFFFFFFFFFFFFFFFF42
:108E4000FFFFFFFFFFFFFFFFFFFFFFFFFFFFFFFF32
:108E5000FFFFFFFFFFFFFFFFFFFFFFFFFFFFFFFF22
:108E6000FFFFFFFFFFFFFFFFFFFFFFFFFFFFFFFF12
:108E7000FFFFFFFFFFFFFFFFFFFFFFFFFFFFFFFF02
:108E8000FFFFFFFFFFFFFFFFFFFFFFFFFFFFFFFFF2
:108E9000FFFFFFFFFFFFFFFFFFFFFFFFFFFFFFFFE2
:108EA000FFFFFFFFFFFFFFFFFFFFFFFFFFFFFFFFD2
:108EB000FFFFFFFFFFFFFFFFFFFFFFFFFFFFFFFFC2
:108EC000FFFFFFFFFFFFFFFFFFFFFFFFFFFFFFFFB2
:108ED000FFFFFFFFFFFFFFFFFFFFFFFFFFFFFFFFA2
:108EE000FFFFFFFFFFFFFFFFFFFFFFFFFFFFFFFF92
:108EF000FFFFFFFFFFFFFFFFFFFFFFFFFFFFFFFF82
:108F0000FFFFFFFFFFFFFFFFFFFFFFFFFFFFFFFF71
:108F1000FFFFFFFFFFFFFFFFFFFFFFFFFFFFFFFF61
:108F2000FFFFFFFFFFFFFFFFFFFFFFFFFFFFFFFF51
:108F3000FFEFDD9675350C1D093D2A3D2A352A3592
:108F40000B350B350B350B350B350B350B350B3521
:108F50000B350B350B350B350B350B350B350B3511
:108F60000B350B350B350B350B350B350B350B3501
:108F70000B350B350B350B350B352A350B352A35B3
:108F80002A1CE93D0CAE75EFDDFFFFFFFFFFFFFF81
:108F9000FFFFFFFFFFFFFFFFFFFFFFFFFFFFFFFFE1
:108FA000FFFFFFFFFFFFFFFFFFFFFFFFFFFFFFFFD1
:108FB000FFFFFFFFFFFFFFFFFFFFFFFFFFFFFFFFC1
:108FC000FFFFFFFFFFFFFFFFFFFFFFFFFFFFFFFFB1
:108FD000FFFFFFFFFFFFFFFFFFFFFFFFFFFFFFFFA1
:108FE000FFFFFFFFFFFFFFFFFFFFFFFFFFFFFFFF91
:108FF000FFFFFFFFFFFFFFFFFFFFFFFFFFFFFFFF81
:10900000FFFFFFFFFFFFFFFFFFFFFFFFFFFFFFFF70
:10901000FFFFFFFFFFFFFFFFFFFFFFFFFFFFFFFF60
:10902000FFFFFFFFFFFFFFFFFFFFFFFFFFFFFFFF50
:10903000FFFFFFFFFFFFFFFFFFFFFFFFFFFFFFFF40
:10904000FFFFFFFFFFFFFFFFFFFFFFFFFFFFFFFF30
:10905000FFFFFFFFFFFFFFFFFFFFFFFFFFFFFFFF20
:10906000FFFFFFFFFFFFFFFFFFFFFFFFFFFFFFFF10
:10907000FFFFFFFFFFFFFFFFFFFFFFFFFFFFFFFF00
:10908000FFFFFFFFFFFFFFFFFFFFFFFFFFFFFFFFF0
:10909000FFFFFFFFFFFFFFFFFFFFFFFFFFFFFFFFE0
:1090A000FFFFFFFFFFFFFFFFFFFFFFFFFFFFFFFFD0
:1090B000FFFFFFFFFFFFFFFFFFFFFFFFFFFFFFFFC0
:1090C000FFFFFFFFFFFFFFFFFFFFFFFFFFFFFFFFB0
:1090D000FFFFFFFFFFFFFFFFFFFFFFFFFFFFFFFFA0
:1090E000FFFFFFFFFFFFFFFFFFFFFE9E95350B35E4
:1090F000293D2A352A352A352A350B350B350B35CE
:109100000B350B350B350B350B350B350B350B355F
:109110000B350B350B350B350B350B350B350B354F
:109120000B350B350B350B350B350B350B350B353F
:109130000B350B350B350B350B350B352A3D2A35E9
:109140002A1D093D0CAEB7FFFFFFFFFFFFFFFFFF2A
:10915000FFFFFFFFFFFFFFFFFFFFFFFFFFFFFFFF1F
:10916000FFFFFFFFFFFFFFFFFFFFFFFFFFFFFFFF0F
:10917000FFFFFFFFFFFFFFFFFFFFFFFFFFFFFFFFFF
:10918000FFFFFFFFFFFFFFFFFFFFFFFFFFFFFFFFEF
:10919000FFFFFFFFFFFFFFFFFFFFFFFFFFFFFFFFDF
:1091A000FFFFFFFFFFFFFFFFFFFFFFFFFFFFFFFFCF
:1091B000FFFFFFFFFFFFFFFFFFFFFFFFFFFFFFFFBF
:1091C000FFFFFFFFFFFFFFFFFFFFFFFFFFFFFFFFAF
:1091D000FFFFFFFFFFFFFFFFFFFFFFFFFFFFFFFF9F
:1091E000FFFFFFFFFFFFFFFFFFFFFFFFFFFFFFFF8F
:1091F000FFFFFFFFFFFFFFFFFFFFFFFFFFFFFFFF7F
:10920000FFFFFFFFFFFFFFFFFFFFFFFFFFFFFFFF6E
:10921000FFFFFFFFFFFFFFFFFFFFFFFFFFFFFFFF5E
:10922000FFFFFFFFFFFFFFFFFFFFFFFFFFFFFFFF4E
:10923000FFFFFFFFFFFFFFFFFFFFFFFFFFFFFFFF3E
:10924000FFFFFFFFFFFFFFFFFFFFFFFFFFFFFFFF2E
:10925000FFFFFFFFFFFFFFFFFFFFFFFFFFFFFFFF1E
:10926000FFFFFFFFFFFFFFFFFFFFFFFFFFFFFFFF0E
:10927000FFFFFFFFFFFFFFFFFFFFFFFFFFFFFFFFFE
:10928000FFFFFFFFFFFFFFFFFFFFFFFFFFFFFFFFEE
:10929000FFFFFFFFFFFFFFFFFFFFFFFFFFFFFFFFDE
:1092A000FFFFFFCF393D0C1D093D2A3D2A352A35E8
:1092B0002A352A352A350B350B350B350B350B3551
:1092C0000B350B350B350B350B350B350B350B359E
:1092D0000B350B350B350B350B350B350B350B358E
:1092E0000B350B350B350B350B350B350B350B357E
:1092F0000B350B350B350B352A350B350B352A2D38
:109300002A35295D8FDF7AFFFFFFFFFFFFFFFFFF99
:10931000FFFFFFFFFFFFFFFFFFFFFFFFFFFFFFFF5D
:10932000FFFFDDFFFFFFFFFFFFFFFFFFFFFFFFFF6F
:10933000FFFFFFFFFFFFFFFFFFFFFFFFFFFFFFFF3D
:10934000FFFFFFFFFFFFFFFFFFFFFFFFFFFFFFFF2D
:10935000FFFFFFFFFFFFFFFFFFFFFFFFFFFFFFFF1D
:10936000FFFFFFFFFFFFFFFFFFFFFFFFFFFFFFFF0D
:10937000FFFFFFFFFFFFFFFFFFFFFFFFFFFFFFFFFD
:10938000FFFFFFFFFFFFFFFFFFFFFFFFFFFFFFFFED
:10939000FFFFFFFFFFFFFFFFFFFFFFFFFFFFFFFFDD
:1093A000FFFFFFFFFFFFFFFFFFFFFFFFFFFFFFFFCD
:1093B000FFFFFFFFFFFFFFFFFFFFFFFFFFFFFFFFBD
:1093C000FFFFFFFFFFFFFFFFFFFFFFFFFFFFFFFFAD
:1093D000FFFFFFFFFFFFFFFFFFFFFFFFFFFFFFFF9D
:1093E000FFFFFFFFFFFFFFFFFFFFFFFFFFFFFFFF8D
:1093F000FFFFFFFFFFFFFFFFFFFFFFFFFFFFFFFF7D
:10940000FFFFFFFFFFFFFFFFFFFFFFFFFFFFFFFF6C
:10941000FFFFFFFFFFFFFFFFFFFFFFFFFFFFFFFF5C
:10942000FFFFFFFFFFFFFFFFFFFFFFFFFFFFFFFF4C
:10943000FFFFFFFFFFFFFFFFFFFFFFFFFFFFFFFF3C
:10944000FFFFFFFFFFFFFFFFFFFFFFFFFFFFFFFF2C
:10945000FFFFFFFFFFFFFFFFFFFFFFDFBD75B01D39
:10946000092D2A352A3D2A352A352A352A350B3544
:109470000B350B350B350B350B350B350B350B35EC
:109480000B350B350B350B350B350B350B350B35DC
:109490000B350B350B350B350B350B350B350B35CC
:1094A0000B350B350B350B350B350B350B350B35BC
:1094B0000B350B350B350B350B352A350B352A356E
:1094C000291CE99654FFFFFFFFFFFFFFFFFFFFFF8F
:1094D000FFFFFFFFFFFFFFFFFFFFFFFFFFE5B0F70D
:1094E00039FFFFFFFFFFFFFFFFFFFFFFFFFFFFFF52
:1094F000FFFFFFFFFFFFFFFFFFFFFFFFFFFFFFFF7C
:10950000FFFFFFFFFFFFFFFFFFFFFFFFFFFFFFFF6B
:10951000FFFFFFFFFFFFFFFFFFFFFFFFFFFFFFFF5B
:10952000FFFFFFFFFFFFFFFFFFFFFFFFFFFFFFFF4B
:10953000FFFFFFFFFFFFFFFFFFFFFFFFFFFFFFFF3B
:10954000FFFFFFFFFFFFFFFFFFFFFFFFFFFFFFFF2B
:10955000FFFFFFFFFFFFFFFFFFFFFFFFFFFFFFFF1B
:10956000FFFFFFFFFFFFFFFFFFFFFFFFFFFFFFFF0B
:10957000FFFFFFFFFFFFFFFFFFFFFFFFFFFFFFFFFB
:10958000FFFFFFFFFFFFFFFFFFFFFFFFFFFFFFFFEB
:10959000FFFFFFFFFFFFFFFFFFFFFFFFFFFFFFFFDB
:1095A000FFFFFFFFFFFFFFFFFFFFFFFFFFFFFFFFCB
:1095B000FFFFFFFFFFFFFFFFFFFFFFFFFFFFFFFFBB
:1095C000FFFFFFFFFFFFFFFFFFFFFFFFFFFFFFFFAB
:1095D000FFFFFFFFFFFFFFFFFFFFFFFFFFFFFFFF9B
:1095E000FFFFFFFFFFFFFFFFFFFFFFFFFFFFFFFF8B
:1095F000FFFFFFFFFFFFFFFFFFFFFFFFFFFFFFFF7B
:10960000FFFFFFFFFFFFFFFFFFFFFFFFFFFFFFFF6A
:10961000FFFFFFFFFFFFFFAEB71CE92D2A2D2A3504
:109620002A352A352A352A350B350B350B350B35BE
:109630000B350B350B350B350B350B350B350B352A
:109640000B350B350B350B350B350B350B350B351A
:109650000B350B350B350B350B350B350B350B350A
:109660000B350B350B350B350B350B350B350B35FA
:109670000B350B350B350B352A352A350B350B1DC4
:10968000094D4DD77BFFFFFFFFFFFFFFFFFFFFFFF0
:10969000FFFFFFFFFFFFFFFFFEF466EDCFFFFFFFC1
:1096A000FFFFFFFFFFFFFFFFFFFFFFFFFFFFFFFFCA
:1096B000FFFFFFFFFFFFFFFFFFFFFFFFFFFFFFFFBA
:1096C000FFFFFFFFFFFFFFFFFFFFFFFFFFFFFFFFAA
:1096D000FFFFFFFFFFFFFFFFFFFFFFFFFFFFFFFF9A
:1096E000FFFFFFFFFFFFFFFFFFFFFFFFFFFFFFFF8A
:1096F000FFFFFFFFFFFFFFFFFFFFFFFFFFFFFFFF7A
:10970000FFFFFFFFFFFFFFFFFFFFFFFFFFFFFFFF69
:10971000FFFFFFFFFFFFFFFFFFFFFFFFFFFFFFFF59
:10972000FFFFFFFFFFFFFFFFFFFFFFFFFFFFFFFF49
:10973000FFFFFFFFFFFFFFFFFFFFFFFFFFFFFFFF39
:10974000FFFFFFFFFFFFFFFFFFFFFFFFFFFFFFFF29
:10975000FFFFFFFFFFFFFFFFFFFFFFFFFFFFFFFF19
:10976000FFFFFFFFFFFFFFFFFFFFFFFFFFFFFFFF09
:10977000FFFFFFFFFFFFFFFFFFFFFFFFFFFFFFFFF9
:10978000FFFFFFFFFFFFFFFFFFFFFFFFFFFFFFFFE9
:10979000FFFFFFFFFFFFFFFFFFFFFFFFFFFFFFFFD9
:1097A000FFFFFFFFFFFFFFFFFFFFFFFFFFFFFFFFC9
:1097B000FFFFFFFFFFFFFFFFFFFFFFFFFFFFFFFFB9
:1097C000FFFFFFFFFFFFFFFFFFFFFFFFFFFFFFFFA9
:1097D000FFFFFFFFFFB6F934CA3529350B350B35CE
:1097E0000B350B350B350B350B350B350B350B3579
:1097F0000B350B350B350B350B350B350B350B3569
:109800000B350B350B350B350B350B350B350B3558
:109810000B350B350B350B350B350B350B350B3548
:109820000B350B350B350B350B350B350B350B3538
:109830000B350B350B350B350B350B350B1D093D3A
:109840002AAEB7FFFFFFFFFFFFFFFFFFFFFFFFFF96
:10985000FFFFFFF718FB80F466FFFFFFFFFFFFFF2E
:10986000FFFFFFFFFFFFFFFFFFFFFFFFFFFFFFFF08
:10987000FFFFFFFFFFFFFFFFFFFFFFFFFFFFFFFFF8
:10988000FFFFFFFFFFFFFFFFFFFFFFFFFFFFFFFFE8
:10989000FFFFFFFFFFFFFFFFFFFFFFFFFFFFFFFFD8
:1098A000FFFFFFFFFFFFFFFFFFFFFFFFFFFFFFFFC8
:1098B000FFFFFFFFFFFFFFFFFFFFFFFFFFFFFFFFB8
:1098C000FFFFFFFFFFFFFFFFFFFFFFFFFFFFFFFFA8
:1098D000FFFFFFFFFFFFFFFFFFFFFFFFFFFFFFFF98
:1098E000FFFFFFFFFFFFFFFFFFFFFFFFFFFFFFFF88
:1098F000FFFFFFFFFFFFFFFFFFFFFFFFFFFFFFFF78
:10990000FFFFFFFFFFFFFFFFFFFFFFFFFFFFFFFF67
:10991000FFFFFFFFFFFFFFFFFFFFFFFFFFFFFFFF57
:10992000FFFFFFFFFFFFFFFFFFFFFFFFFFFFFFFF47
:10993000FFFFFFFFFFFFFFFFFFFFFFFFFFFFFFFF37
:10994000FFFFFFFFFFFFFFFFFFFFFFFFFFFFFFFF27
:10995000FFFFFFFFFFFFFFFFFFFFFFFFFFFFFFFF17
:10996000FFFFFFFFFFFFFFFFFFFFFFFFFFFFFFFF07
:10997000FFFFFFFFFFFFFFFFFFFFFFFFFFFFFFFFF7
:10998000FFFFFFFFFFFFFFFFFFFFFFFFFFFFFFFFE7
:10999000FFFFFFCF3934CA352A3D2A352A350B352A
:1099A0000B350B350B350B350B350B350B350B35B7
:1099B0000B350B350B350B350B350B350B350B35A7
:1099C0000B350B350B350B350B350B350B350B3597
:1099D0000B350B350B350B350B350B350B350B3587
:1099E0000B350B350B350B350B350B350B350B3577
:1099F0000B350B350B350B352A352A352924E885EF
:109A0000F3FFFFFFFFFFFFFFFFFFFFFFFFFFFFF57C
:109A10006DFBC0F3C0F718FFFFFFFFFFFFFFFFFF65
:109A2000FFFFFFFFFFFFFFFFFFFFFFFFFFFFFFFF46
:109A3000FFFFFFFFFFFFFFFFFFFFFFFFFFFFFFFF36
:109A4000FFFFFFFFFFFFFFFFFFFFFFFFFFFFFFFF26
:109A5000FFFFFFFFFFFFFFFFFFFFFFFFFFFFFFFF16
:109A6000FFFFFFFFFFFFFFFFFFFFFFFFFFFFFFFF06
:109A7000FFFFFFFFFFFFFFFFFFFFFFFFFFFFFFFFF6
:109A8000FFFFFFFFFFFFFFFFFFFFFFFFFFFFFFFFE6
:109A9000FFFFFFFFFFFFFFFFFFFFFFFFFFFFFFFFD6
:109AA000FFFFFFFFFFFFFFFFFFFFFFFFFFFFFFFFC6
:109AB000FFFFFFFFFFFFFFFFFFFFFFFFFFFFFFFFB6
:109AC000FFFFFFFFFFFFFFFFFFFFFFFFFFFFFFFFA6
:109AD000FFFFFFFFFFFFFFFFFFFFFFFFFFFFFFFF96
:109AE000FFFFFFFFFFFFFFFFFFFFFFFFFFFFFFFF86
:109AF000FFFFFFFFFFFFFFFFFFFFFFFFFFFFFFFF76
:109B0000FFFFFFFFFFFFFFFFFFFFFFFFFFFFFFFF65
:109B1000FFFFFFFFFFFFFFFFFFFFFFFFFFFFFFFF55
:109B2000FFFFFFFFFFFFFFFFFFFFFFFFFFFFFFFF45
:109B3000FFFFFFFFFFFFFFFFFFFFFFFFFFFFFFFF35
:109B4000FFFFFFFFFFFFFFFFFFFFFFFFFFFFFFFF25
:109B5000FFD77B3D0C35293D2A350B352A352A3573
:109B60000B350B350B350B350B350B350B350B35F5
:109B70000B350B350B350B350B350B350B350B35E5
:109B80000B350B350B350B350B350B350B350B35D5
:109B90000B350B350B350B350B350B350B350B35C5
:109BA0000B350B350B350B350B350B350B350B35B5
:109BB0000B350B350B352A352A3D2A352975B0FF73
:109BC000FEFFFFFFFFFFFFFFFFFFDDEBE4FBE0FB1E
:109BD000E0E58DFFFFFFFFFFFFFFFFFFFFFFFFFF40
:109BE000FFFFFFFFFFFFFFFFFFFFFFFFFFFFFFFF85
:109BF000FFFFFFFFFFFFFFFFFFFFFFFFFFFFFFFF75
:109C0000FFFFFFFFFFFFFFFFFFFFFFFFFFFFFFFF64
:109C1000FFFFFFFFFFFFFFFFFFFFFFFFFFFFFFFF54
:109C2000FFFFFFFFFFFFFFFFFFFFFFFFFFFFFFFF44
:109C3000FFFFFFFFFFFFFFFFFFFFFFFFFFFFFFFF34
:109C4000FFFFFFFFFFFFFFFFFFFFFFFFFFFFFFFF24
:109C5000FFFFFFFFFFFFFFFFFFFFFFFFFFFFFFFF14
:109C6000FFFFFFFFFFFFFFFFFFFFFFFFFFFFFFFF04
:109C7000FFFFFFFFFFFFFFFFFFFFFFFFFFFFFFFFF4
:109C8000FFFFFFFFFFFFFFFFFFFFFFFFFFFFFFFFE4
:109C9000FFFFFFFFFFFFFFFFFFFFFFFFFFFFFFFFD4
:109CA000FFFFFFFFFFFFFFFFFFFFFFFFFFFFFFFFC4
:109CB000FFFFFFFFFFFFFFFFFFFFFFFFFFFFFFFFB4
:109CC000FFFFFFFFFFFFFFFFFFFFFFFFFFFFFFFFA4
:109CD000FFFFFFFFFFFFFFFFFFFFFFFFFFFFFFFF94
:109CE000FFFFFFFFFFFFFFFFFFFFFFFFFFFFFFFF84
:109CF000FFFFFFFFFFFFFFFFFFFFFFFFFFFFFFFF74
:109D0000FFFFFFFFFFFFFFFFFFFFFFFFFFFFFFF76B
:109D1000DD5D8F3529352A352A352A352A350B352B
:109D20000B350B350B350B350B350B350B350B3533
:109D30000B350B350B350B350B350B350B350B3523
:109D40000B350B350B350B350B350B350B350B3513
:109D50000B350B350B350B350B350B350B350B3503
:109D60000B350B350B350B350B350B350B350B35F3
:109D70000B352A352A352A352A1D094D4DEFDDFFD1
:109D8000FFFFFFFFFFF696FBC0FBE0FBE0F423FFC5
:109D9000DBFFFFFFFFFFFFFFFFFFFFFFFFFFFFFFF7
:109DA000FFFFFFFFFFFFFFFFFFFFFFFFFFFFFFFFC3
:109DB000FFFFFFFFFFFFFFFFFFFFFFFFFFFFFFFFB3
:109DC000FFFFFFFFFFFFFFFFFFFFFFFFFFFFFFFFA3
:109DD000FFFFFFFFFFFFFFFFFFFFFFFFFFFFFFFF93
:109DE000FFFFFFFFFFFFFFFFFFFFFFFFFFFFFFFF83
:109DF000FFFFFFFFFFFFFFFFFFFFFFFFFFFFFFFF73
:109E0000FFFFFFFFFFFFFFFFFFFFFFFFFFFFFFFF62
:109E1000FFFFFFFFFFFFFFFFFFFFFFFFFFFFFFFF52
:109E2000FFFFFFFFFFFFFFFFFFFFFFFFFFFFFFFF42
:109E3000FFFFFFFFFFFFFFFFFFFFFFFFFFFFFFFF32
:109E4000FFFFFFFFFFFFFFFFFFFFFFFFFFFFFFFF22
:109E5000FFFFFFFFFFFFFFFFFFFFFFFFFFFFFFFF12
:109E6000FFFFFFFFFFFFFFFFFFFFFFFFFFFFFFFF02
:109E7000FFFFFFFFFFFFFFFFFFFFFFFFFFFFFFFFF2
:109E8000FFFFFFFFFFFFFFFFFFFFFFFFFFFFFFFFE2
:109E9000FFFFFFFFFFFFFFFFFFFFFFFFFFFFFFFFD2
:109EA000FFFFFFFFFFFFFFFFFFFFFFFFFFFFFFFFC2
:109EB000FFFFFFFFFFFFFFFFFFFFFFFFFFFFFFFFB2
:109EC000FFFFFFFFFFFFFFFFFFFFFFFFFFFFFF861B
:109ED000131D093D2A352A3D2A352A350B350B3508
:109EE0000B350B350B350B350B350B350B350B3572
:109EF0000B350B350B350B350B350B350B350B3562
:109F00000B350B350B350B350B350B350B350B3551
:109F10000B350B350B350B350B350B350B350B3541
:109F20000B350B350B350B352A352A350B350B35F3
:109F30002A352A352A350B1D094D4DEFDDFFFFFF70
:109F4000FFED0BFBC0FBE0FBE0FBC0F6F6FFFFFF05
:109F5000FFFFFFFFFFFFFFFFFFFFFFFFFFFFFFFF11
:109F6000FFFFFFFFFFFFFFFFFFFFFFFFFFFFFFFF01
:109F7000FFFFFFFFFFFFFFFFFFFFFFFFFFFFFFFFF1
:109F8000FFFFFFFFFFFFFFFFFFFFFFFFFFFFFFFFE1
:109F9000FFFFFFFFFFFFFFFFFFFFFFFFFFFFFFFFD1
:109FA000FFFFFFFFFFFFFFFFFFFFFFFFFFFFFFFFC1
:109FB000FFFFFFFFFFFFFFFFFFFFFFFFFFFFFFFFB1
:109FC000FFFFFFFFFFFFFFFFFFFFFFFFFFFFFFFFA1
:109FD000FFFFFFFFFFFFFFFFFFFFFFFFFFFFFFFF91
:109FE000FFFFFFFFFFFFFFFFFFFFFFFFFFFFFFFF81
:109FF000FFFFFFFFFFFFFFFFFFFFFFFFFFFFFFFF71
:10A00000FFFFFFFFFFFFFFFFFFFFFFFFFFFFFFFF60
:10A01000FFFFFFFFFFFFFFFFFFFFFFFFFFFFFFFF50
:10A02000FFFFFFFFFFFFFFFFFFFFFFFFFFFFFFFF40
:10A03000FFFFFFFFFFFFFFFFFFFFFFFFFFFFFFFF30
:10A04000FFFFFFFFFFFFFFFFFFFFFFFFFFFFFFFF20
:10A05000FFFFFFFFFFFFFFFFFFFFFFFFFFFFFFFF10
:10A06000FFFFFFFFFFFFFFFFFFFFFFFFFFFFFFFF00
:10A07000FFFFFFFFFFFFFFFFFFFFFFFFFFFFFFFFF0
:10A08000FFFFFFFFFFFFFFFFFFFFFFFFFFB6F91C12
:10A09000E935293D2A352A352A350B350B350B355F
:10A0A0000B350B350B350B350B350B350B350B35B0
:10A0B0000B350B350B350B350B350B350B350B35A0
:10A0C0000B350B350B350B350B350B350B350B3590
:10A0D0000B350B350B350B350B350B350B350B3580
:10A0E0000B352A2D2A35291CE91CE91CE93D2A35A6
:10A0F000291CE91CE91D093D0CFFFFFFDBF3A0FC57
:10A1000002FBE0FC02FBE0ECEAFFFFFFFFFFFFFFCA
:10A11000FFFFFFFFFFFFFFFFFFFFFFFFFFFFFFFF4F
:10A12000FFFFFFFFFFFFFFFFFFFFFFFFFFFFFFFF3F
:10A13000FFFFFFFFFFFFFFFFFFFFFFFFFFFFFFFF2F
:10A14000FFFFFFFFFFFFFFFFFFFFFFFFFFFFFFFF1F
:10A15000FFFFFFFFFFFFFFFFFFFFFFFFFFFFFFFF0F
:10A16000FFFFFFFFFFFFFFFFFFFFFFFFFFFFFFFFFF
:10A17000FFFFFFFFFFFFFFFFFFFFFFFFFFFFFFFFEF
:10A18000FFFFFFFFFFFFFFFFFFFFFFFFFFFFFFFFDF
:10A19000FFFFFFFFFFFFFFFFFFFFFFFFFFFFFFFFCF
:10A1A000FFFFFFFFFFFFFFFFFFFFFFFFFFFFFFFFBF
:10A1B000FFFFFFFFFFFFFFFFFFFFFFFFFFFFFFFFAF
:10A1C000FFFFFFFFFFFFFFFFFFFFFFFFFFFFFFFF9F
:10A1D000FFFFFFFFFFFFFFFFFFFFFFFFFFFFFFFF8F
:10A1E000FFFFFFFFFFFFFFFFFFFFFFFFFFFFFFFF7F
:10A1F000FFFFFFFFFFFFFFFFFFFFFFFFFFFFFFFF6F
:10A20000FFFFFFFFFFFFFFFFFFFFFFFFFFFFFFFF5E
:10A21000FFFFFFFFFFFFFFFFFFFFFFFFFFFFFFFF4E
:10A22000FFFFFFFFFFFFFFFFFFFFFFFFFFFFFFFF3E
:10A23000FFFFFFFFFFFFFFFFFFFFFFFFFFFFFFFF2E
:10A24000FFFFFFFFFFFFFFFFFFFFFFD77B5D2E1D1F
:10A25000093D2A352A352A350B350B350B350B359B
:10A260000B350B350B350B350B350B350B350B35EE
:10A270000B350B350B350B350B350B350B350B35DE
:10A280000B350B350B350B350B350B350B350B35CE
:10A290000B350B350B350B350B350B350B3D2A8646
:10A2A0001396549E3496759E959E95AF17AF17B62C
:10A2B000F9C718C718D77BF654FBC0FC02FBE0FBBC
:10A2C000E0FBE0F3C0FFDBFFFFFFFEFFFFFFFFFF50
:10A2D000FFFFFFFFFFFFFFFFFFFFFFFFFFFFFFFF8E
:10A2E000FFFFFFFFFFFFFFFFFFFFFFFFFFFFFFFF7E
:10A2F000FFFFFFFFFFFFFFFFFFFFFFFFFFFFFFFF6E
:10A30000FFFFFFFFFFFFFFFFFFFFFFFFFFFFFFFF5D
:10A31000FFFFFFFFFFFFFFFFFFFFFFFFFFFFFFFF4D
:10A32000FFFFFFFFFFFFFFFFFFFFFFFFFFFFFFFF3D
:10A33000FFFFFFFFFFFFFFFFFFFFFFFFFFFFFFFF2D
:10A34000FFFFFFFFFFFFFFFFFFFFFFFFFFFFFFFF1D
:10A35000FFFFFFFFFFFFFFFFFFFFFFFFFFFFFFFF0D
:10A36000FFFFFFFFFFFFFFFFFFFFFFFFFFFFFFFFFD
:10A37000FFFFFFFFFFFFFFFFFFFFFFFFFFFFFFFFED
:10A38000FFFFFFFFFFFFFFFFFFFFFFFFFFFFFFFFDD
:10A39000FFFFFFFFFFFFFFFFFFFFFFFFFFFFFFFFCD
:10A3A000FFFFFFFFFFFFFFFFFFFFFFFFFFFFFFFFBD
:10A3B000FFFFFFFFFFFFFFFFFFFFFFFFFFFFFFFFAD
:10A3C000FFFFFFFFFFFFFFFFFFFFFFFFFFFFFFFF9D
:10A3D000FFFFFFFFFFFFFFFFFFFFFFFFFFFFFFFF8D
:10A3E000FFFFFFFFFFFFFFFFFFFFFFFFFFFFFFFF7D
:10A3F000FFFFFFFFFFFFFFFFFFFFFFFFFFFFFFFF6D
:10A40000FFFFFFFFFFFFFFFFFFFFFF9E341CE9354B
:10A4100029350B352A352A352A352A352A350B3583
:10A420000B350B350B350B350B350B350B350B352C
:10A430000B350B350B350B350B350B350B350B351C
:10A440000B350B350B350B350B350B350B350B350C
:10A450000B350B350B352A350B352A75B0FFFFF65A
:10A46000F8F56DF5AFF5AFF56DF56DFD2CF4ABF4CA
:10A47000C9ECA9F423FBE0FBE0FBE0FBE0FBE0FB25
:10A48000C0F466F4A7F4A7F4C9ED0BFD2CF56EF546
:10A490006EFD8DE58DFFFFFFFFFFFFFFFFFFFFFF5D
:10A4A000FFFFFFFFFFFFFFFFFFFFFFFFFFFFFFFFBC
:10A4B000FFFFFFFFFFFFFFFFFFFFFFFFFFFFFFFFAC
:10A4C000FFFFFFFFFFFFFFFFFFFFFFFFFFFFFFFF9C
:10A4D000FFFFFFFFFFFFFFFFFFFFFFFFFFFFFFFF8C
:10A4E000FFFFFFFFFFFFFFFFFFFFFFFFFFFFFFFF7C
:10A4F000FFFFFFFFFFFFFFFFFFFFFFFFFFFFFFFF6C
:10A50000FFFFFFFFFFFFFFFFFFFFFFFFFFFFFFFF5B
:10A51000FFFFFFFFFFFFFFFFFFFFFFFFFFFFFFFF4B
:10A52000FFFFFFFFFFFFFFFFFFFFFFFFFFFFFFFF3B
:10A53000FFFFFFFFFFFFFFFFFFFFFFFFFFFFFFFF2B
:10A54000FFFFFFFFFFFFFFFFFFFFFFFFFFFFFFFF1B
:10A55000FFFFFFFFFFFFFFFFFFFFFFFFFFFFFFFF0B
:10A56000FFFFFFFFFFFFFFFFFFFFFFFFFFFFFFFFFB
:10A57000FFFFFFFFFFFFFFFFFFFFFFFFFFFFFFFFEB
:10A58000FFFFFFFFFFFFFFFFFFFFFFFFFFFFFFFFDB
:10A59000FFFFFFFFFFFFFFFFFFFFFFFFFFFFFFFFCB
:10A5A000FFFFFFFFFFFFFFFFFFFFFFFFFFFFFFFFBB
:10A5B000FFFFFFFFFFFFFFFFFFFFFFFFFFFFFFFFAB
:10A5C000FFFFFFFFFFFFFFFFFFD73B658E1CE93D4D
:10A5D0002A352A352A2D2A352A350B350B350B35E8
:10A5E0000B350B350B350B350B350B350B350B356B
:10A5F0000B350B350B350B350B350B350B350B355B
:10A600000B350B350B350B350B350B350B350B354A
:10A610000B350B350B350B1D095D6DD77BF5F2F353
:10A6200060FBC0FBC0FBC0FBE0FBE0FBE0FBE0FB32
:10A63000E0FBE0FBE0FBE0FBE0FBE0FBE0FBE0FB42
:10A64000E0FBE0FBE0FBC0FBA0FBA0FBA0F423F6DB
:10A65000D7FFFFFFFFFFFFFFFFFFFFFFFFFFFFFF32
:10A66000FFFFFFFFFFFFFFFFFFFFFFFFFFFFFFFFFA
:10A67000FFFFFFFFFFFFFFFFFFFFFFFFFFFFFFFFEA
:10A68000FFFFFFFFFFFFFFFFFFFFFFFFFFFFFFFFDA
:10A69000FFFFFFFFFFFFFFFFFFFFFFFFFFFFFFFFCA
:10A6A000FFFFFFFFFFFFFFFFFFFFFFFFFFFFFFFFBA
:10A6B000FFFFFFFFFFFFFFFFFFFFFFFFFFFFFFFFAA
:10A6C000FFFFFFFFFFFFFFFFFFFFFFFFFFFFFFFF9A
:10A6D000FFFFFFFFFFFFFFFFFFFFFFFFFFFFFFFF8A
:10A6E000FFFFFFFFFFFFFFFFFFFFFFFFFFFFFFFF7A
:10A6F000FFFFFFFFFFFFFFFFFFFFFFFFFFFFFFFF6A
:10A70000FFFFFFFFFFFFFFFFFFFFFFFFFFFFFFFF59
:10A71000FFFFFFFFFFFFFFFFFFFFFFFFFFFFFFFF49
:10A72000FFFFFFFFFFFFFFFFFFFFFFFFFFFFFFFF39
:10A73000FFFFFFFFFFFFFFFFFFFFFFFFFFFFFFFF29
:10A74000FFFFFFFFFFFFFFFFFFFFFFFFFFFFFFFF19
:10A75000FFFFFFFFFFFFFFFFFFFFFFFFFFFFFFFF09
:10A76000FFFFFFFFFFFFFFFFFFFFFFFFFFFFFFFFF9
:10A77000FFFFFFFFFFFFFFFFFFFFFFFFFFFFFFFFE9
:10A78000FFFFFFFFFFFFFFFFFF9E95350B1CE92D2D
:10A790002A2D2A350B352A352A352A350B350B3526
:10A7A0000B350B350B350B350B350B350B350B35A9
:10A7B0000B350B350B350B350B350B350B350B3599
:10A7C0000B350B350B350B350B350B350B350B3589
:10A7D0000B350B352A3529350BCF39F6F8F3C0FC8C
:10A7E00002FC02FBE0FBE0FBE0FBE0FBE0FBE0FB4C
:10A7F000E0FBE0FBE0FBE0FBE0FBE0FBE0FBE0FB81
:10A80000E0FBE0FBE0FBC0F4C9F77AFFFFFFFFFFCE
:10A81000FFFFFFFFFFFFFFFFFFFFFFFFFFFFFFFF48
:10A82000FFFFFFFFFFFFFFFFFFFFFFFFFFFFFFFF38
:10A83000FFFFFFFFFFFFFFFFFFFFFFFFFFFFFFFF28
:10A84000FFFFFFFFFFFFFFFFFFFFFFFFFFFFFFFF18
:10A85000FFFFFFFFFFFFFFFFFFFFFFFFFFFFFFFF08
:10A86000FFFFFFFFFFFFFFFFFFFFFFFFFFFFFFFFF8
:10A87000FFFFFFFFFFFFFFFFFFFFFFFFFFFFFFFFE8
:10A88000FFFFFFFFFFFFFFFFFFFFFFFFFFFFFFFFD8
:10A89000FFFFFFFFFFFFFFFFFFFFFFFFFFFFFFFFC8
:10A8A000FFFFFFFFFFFFFFFFFFFFFFFFFFFFFFFFB8
:10A8B000FFFFFFFFFFFFFFFFFFFFFFFFFFFFFFFFA8
:10A8C000FFFFFFFFFFFFFFFFFFFFFFFFFFFFFFFF98
:10A8D000FFFFFFFFFFFFFFFFFFFFFFFFFFFFFFFF88
:10A8E000FFFFFFFFFFFFFFFFFFFFFFFFFFFFFFFF78
:10A8F000FFFFFFFFFFFFFFFFFFFFFFFFFFFFFFFF68
:10A90000FFFFFFFFFFFFFFFFFFFFFFFFFFFFFFFF57
:10A91000FFFFFFFFFFFFFFFFFFFFFFFFFFFFFFFF47
:10A92000FFFFFFFFFFFFFFFFFFFFFFFFFFFFFFFF37
:10A93000FFFFFFFFFFFFFFFFFFFFFFFFFFFFFFFF27
:10A94000FFFFFFFFFFFFFFEFDD965434CA352935C7
:10A950002A350B352A3D2A352A350B350B350B3573
:10A960000B350B350B350B350B350B350B350B35E7
