:020000040800F2
:10000000780D0020C501000831380008D528000807
:100010004933000891090008313D00080000000044
:100020000000000000000000000000005939000836
:10003000950900080000000035380008A1390008C3
:10004000DF010008DF010008DF010008DF01000810
:10005000DF010008DF010008DF010008DF01000800
:10006000DF010008DF010008DF010008DF010008F0
:10007000DF010008DF010008DF010008DF010008E0
:10008000DF010008DF010008DF010008DF010008D0
:10009000DF010008DF010008DF010008DF010008C0
:1000A000DF010008E53B0008DF010008DF01000870
:1000B000DF010008DF010008DF010008DF010008A0
:1000C000DF010008DF010008DF010008DF01000890
:1000D000DF010008253D0008DF010008DF010008FE
:1000E000DF010008DF010008DF01000800F002F86E
:1000F00000F058F814A696E8000CB244B344DA4570
:1001000001D100F04FF8BAE80F000FA696E83000D2
:10011000A5EB040504EB0607AAEB0704A7F101070A
:100120004FEA15154FEA3414A4F10104AC4201D38F
:1001300000F038F813F0010F18BFFB1A43F0010369
:1001400000F001F8DBE71847E8C7000008C8000026
:10015000103A24BF78C878C1FAD8520724BF30C8F3
:1001600030C144BF04680C60704700007047000055
:100170000023002400250026103A28BF78C1FBD8B0
:10018000520728BF30C148BF0B607047642900F098
:10019000A980732900F0FC82002070471FB51FBDA5
:1001A00010B510BD00F02AFB1146FFF7F7FF04F071
:1001B0002DF900F048FB03B4FFF7F2FF03BC00F099
:1001C0004FFB00000948804709480047FEE7FEE76B
:1001D000FEE7FEE7FEE7FEE7FEE7FEE7FEE7FEE7F7
:1001E00004480549054A064B70470000A539000838
:1001F000ED00000878070020780D00207809002025
:10020000780900200FB41CB50C0007AA009007D095
:100210004142A14202D32044401E01E04FF0FF3092
:10022000074B7B4469460190069800F084FA002150
:10023000002C01D0009A11701CBC5DF814FB00006A
:100240003705000070B5044685690068C10601D510
:10025000302600E02026C00707D070BDD4E9012178
:1002600030469047206A401C20626D1EF6D570BD56
:1002700070B5044685690078C00707D170BDD4E920
:10028000012120209047206A401C20626D1EF6D577
:1002900070BD70B50C460546012A05D02878800649
:1002A00000D5EA69002302E0012305E05B1C9342CC
:1002B00002D2E05C0028F9D1A869E618C01AA8614A
:1002C000286A184428622846FFF7BCFF04E0D5E9F5
:1002D000012114F8010B9047B442F8D32846FFF7E8
:1002E000C7FF70BD2DE9F04106460024106875294E
:1002F000314616A510D0AFF30080002802DA404244
:1003000013A507E031688A0701D512A502E0490765
:1003100004D511A5012401E0AFF3008000210A22D9
:1003200006F1240709E0B0FBF2FCB0FBF2F302FB9C
:100330001C00303078541846491C0028F3D123465D
:100340002A463046BDE8F04100F097B900000000B1
:100350002D0000002B000000200000002DE9F05FC0
:10036000894604464FF0000ADFF874B1FB44C0F838
:1003700020A02046E1688847002874D0252806D0B0
:10038000D4E901219047206A401C2062F1E7002651
:100390005F462046E16888472028054607DB312D67
:1003A00005D2781910F8200C08B10643F1E7B00720
:1003B00001D526F00406C4F81CA00027C4F818A034
:1003C0002A2D09D0284604F03AF938B304EB8708FF
:1003D000303DC8F8185019E059F8041B204604EBCA
:1003E00087029161E1688847012F054618D1E069CD
:1003F000002820DA26F020061DE0D8F8180000EBCF
:10040000800005EB40003038C8F818002046E1684D
:100410008847054604F013F90028EED1012F0AD0D1
:100420002E2D08D12046E16888477F1C0546022F03
:1004300046F02006C4DBA069002803DA404246F0FB
:100440000106A061F00701D026F010066C2D0BD03C
:10045000682D09D04C2D39D06A2D35D0742D35D06A
:100460007A2D33D016E038E0E1682F4620468847E1
:10047000B842054609D16C2F26D04FF48060E16860
:10048000064320468847054604E06C2F1AD04FF4F7
:10049000807006430DB3A5F14100192802D820351C
:1004A00046F400664A462946204626604E46FFF737
:1004B0006DFE80B101280BD0F61D26F0070000F17B
:1004C000080956E74020E4E78020D8E70020D6E777
:1004D00006F104094DE7284652E7206ABDE8F09F7F
:1004E000DC42000040EA0103024630B59B0710D110
:1004F0004FF0013400E008C208C91D1B9D4315EAF6
:10050000C41FF8D013F0FF0102F8011B0DD01B0A25
:10051000F8E711F8013B002B02F8013B05D011F878
:10052000013B002B02F8013BF3D130BD10B5431C59
:1005300002E010F8011B71B18107FAD14FF00132CE
:1005400002C88C1A8C4314EAC211F9D0C01A0A06E8
:1005500003D0C01E10BDC01A10BD0A0401D0801EF9
:1005600010BD0902FCD0401E10BD032A40F23080AD
:1005700010F0030C00F0158011F8013BBCF1020FE4
:10058000624498BF11F801CB00F8013B38BF11F865
:10059000013BA2F1040298BF00F801CB38BF00F87C
:1005A000013B11F0030300F0F780083AC0F0088027
:1005B00051F8043B083A51F804CBA0E80810F5E7DD
:1005C000121D5CBF51F8043B40F8043BAFF30080C0
:1005D000D20724BF11F8013B11F801CB48BF11F835
:1005E000012B24BF00F8013B00F801CB48BF00F805
:1005F000012B70474FF0013C50F8042B51F8043B9D
:100600009A4221D1A2EB0C03934313EACC1317D1E6
:1006100050F8042B51F8043B9A4215D1A2EB0C037D
:10062000934313EACC130BD150F8042B51F8043B3D
:100630009A4209D1A2EB0C03934313EACC13DBD00B
:100640004FF00000704700BFD01A01BAB1FA81F133
:1006500001F0180122FA01F0CB40DBB2C0B2C01A9F
:10066000C1F120012CFA01F3D11A914311EAC3110F
:10067000E6D170477047704770472DE9F0470D4647
:1006800099469246044600F124080168880604D57C
:10069000E06921F01001216000E00120A84201DDA5
:1006A000471B00E00027A1697A1902EB0900081A2C
:1006B000A0612078C00602D42046FFF7C3FD0026C3
:1006C00008E0D4E901211AF806009047206A401C8E
:1006D000761C20624E45F4DB2078C0060AD5204601
:1006E000FFF7B0FD06E0D4E9012130209047206AF1
:1006F000401C2062381EA7F10107F4DC07E0D4E9B2
:10070000012118F805009047206A401C2062281E2D
:10071000A5F10105F3DC2046FFF7AAFD20780006CD
:1007200002D50220BDE8F0870120FBE701694A1CE1
:1007300002610878704700B58FB0CDE90131002122
:10074000059105497944CDE9031011466846FFF744
:1007500005FE0FB000BD0000E5FFFFFFD1E900235B
:100760009A4202D2531C0B601070704710B5436957
:1007700013B1AFF3008001E0FFF78BFD012010BD46
:10078000127800F124010A7000224A700122EDE77C
:1007900011684FF0FF32E9E710B5203AC0F00B8046
:1007A000B1E81850A0E81850B1E81850A0E8185067
:1007B000203ABFF4F5AF5FEA027C24BFB1E81850DD
:1007C000A0E8185044BF18C918C0BDE810405FEA3F
:1007D000827C24BF51F8043B40F8043B08BF7047BB
:1007E000D20728BF31F8023B48BF11F8012B28BFC0
:1007F00020F8023B48BF00F8012B7047754600F017
:100800002BF8AE4605006946534620F007008546A2
:1008100018B020B5FFF7E4FCBDE820404FF000061B
:100820004FF000074FF000084FF0000BAC46ACE86B
:10083000C009ACE8C009ACE8C009ACE8C00921F0C7
:1008400007018D46704710B50446AFF3008020467F
:10085000BDE81040FFF7AFBC004870472000002003
:1008600001491820ABBEFEE72600020070470000D9
:100870002DE9F04F83B040F2E0590029C2F200099F
:1008800058D040F2685605464FEA011AC2F20006F7
:100890004FF0000B0024029119E000BF30A2FFF7D7
:1008A000B1FC4CF6D40109EB0B00C0F60001C0E925
:1008B000011643F6F131C0F6000149F80B70C16032
:1008C0000BF1100B0134DA4506F1060630D015F8AD
:1008D0000480A8F1640010F1630FF1D308EB480025
:1008E0006FF0050101EB4001080AC9B20522334649
:1008F00003F08AFA0020707140F22840C2F2000032
:1009000000EB0B07B8F1520F04F1010338464FF02A
:1009100010010BD0B8F1510FC0D0B8F1500F1ABF71
:1009200017A2CDF8008012A2B9E700BF08A2B6E76F
:10093000029900E0002109EB01100901002249F8A9
:100940000120C0E90122C26003B0BDE8F08F00BF02
:1009500025642E20545559454E20393654540000F4
:1009600025642E20545559454E204E545400000005
:1009700025642E20545559454E20474254540000BA
:1009800025642E20545559454E2025640000000052
:10099000FEE7000070470000014690F821000228A1
:1009A00016D10868D1E90FC3026822F00E02026076
:1009B000026822F001020260012000FA03F2CCF882
:1009C000042081F821000020002281F820207047B7
:1009D000042088630120002281F820207047000055
:1009E00090F82110022923D1026840F2040C11680A
:1009F000C4F2020C21F00E01116013682F21C4F221
:100A000002018A4223F00103136015DD3023C4F292
:100A100002039A421CD04423C4F202039A421BD020
:100A20005823C4F202039A421CD14FF4803321E0D0
:100A300004218163012070470823C4F202039A4213
:100A40000ED01C23C4F202039A420BD1102311E0F2
:100A50004FF480730EE000BF4FF480530AE000BFF4
:100A6000012307E00CF168014FF080738A4208BF50
:100A70004FF480130121CCF8003080F82110416B35
:100A80000022002980F8202004BF0020704780B594
:100A90008847002080BD0000B0B5044600F024F96E
:100AA000054640F20000C2F200000078611C18BF49
:100AB000044400BF00F018F9401BA042FAD3B0BDB7
:100AC0002DE9F04F82B00E68002E00F0FD8041F25B
:100AD0000042C4F20102042340F2004E904208BFDB
:100AE00003234FF6FF7CC4F2010E00930024012380
:100AF000C1F2100C4FF0000A4FF000094BE000BFAC
:100B000041F20002C4F20102009F904208BF022796
:100B100004F00C030F229A402BEA020207FA03F3B7
:100B20004FEA9A051A4346F825204E6840F20C45D4
:100B3000F202DEF8082054BF22EA080242EA080264
:100B4000C4F20105CEF808202A68B30254BF22EA95
:100B5000080242EA08022A60B303DEF8042054BF08
:100B600022EA080242EA0802F303CEF80420DEF883
:100B700000204FF0010354BF22EA080242EA0802B3
:100B8000CEF800200E680AF1010A36FA0AF204F1E2
:100B9000040400F0998003FA0AFB16EA0B08F1D06E
:100BA0004E68664512DC122E56D8DFE806F0350B8B
:100BB0004D49555555555555555555555555554509
:100BC000510000BFD1F80C9046E000BF4FF6FF7215
:100BD000C1F2210296420FDC0022C1F211029642BC
:100BE0001AD00022C1F21202964215D00022C1F2A0
:100BF0002102964210D02FE00022C1F2220296423A
:100C00000AD00022C1F23102964205D00022C1F280
:100C10003202964220D100BF8A684AB1012A14BF2D
:100C2000C0F814B0C0F810B04FF0080914E000BFCD
:100C30004FF0040910E000BFCA6802F104090BE09C
:100C40004FF0000908E000BFCA6802F1080903E09C
:100C5000CA6802F10C0900BF02462646B8F5807F3B
:100C600024BF0432203E17680F25B54027EA05054A
:100C700009FA06F635431560CA79D2067FF582AFC8
:100C800041F21803C4F202031A68AEF57E7642F010
:100C900001021A601A6802F001020192019A2AF018
:100CA000030256F802B040F60002C4F2010290427C
:100CB00008D040F60042C4F2010290427FF420AF17
:100CC000012725E7002723E702B0BDE8F08F0000E9
:100CD0008068084018BF012070470000002A08BF44
:100CE000090401617047000040F27070C2F2000018
:100CF0000068704740F2000040F27071C2F20000DC
:100D0000C2F2000100780A681044086070470000D1
:100D100080B542F20000C4F20200016841F0100107
:100D20000160032000F0BCF80F2000F005F800F08F
:100D300057F8002080BD0000B0B586B041F2180120
:100D4000C4F202010A68054642F400620A600968BA
:100D500001A801F4006101910199694600F08EF942
:100D600000F0C2F94DF68361C4F21B31A0FB010112
:100D70004FF0FF3000EB914140F2E03042F600428C
:100D8000C2F20000C4F2010240F2E7330024C0E9DD
:100D90000021C0E902430461846100F0E5FF08B16D
:100DA00006B0B0BD40F2E030C2F2000001F05CF8E5
:100DB0000028F5D1192000F035F80F2D0CD8192096
:100DC0002946002200F040F840F204010020C2F25F
:100DD00000010D6006B0B0BD012006B0B0BD00003E
:100DE00082B041F21800C4F202000168022241F010
:100DF00001010160016801F001010191019941685F
:100E000041F080514160406800F0805000900098AF
:100E10000420C4F20100016862F31A61016002B0AB
:100E200070470000002848BF704700F01F010122F2
:100E300002FA01F11C2202EAD0004EF20012CEF2B8
:100E4000000281507047000010B54EF60C5CCEF2E7
:100E5000000CDCF80030C3F3022E8EF00704042CE3
:100E600028BF0424BEF103034FF0FF3E0EFA04F442
:100E700038BF0023A14399400EFA03F39A4311436C
:100E800000F00F0200F160430901043A03F56443E6
:100E90006244002848BF02F10C03197010BD000025
:100EA0004EF60C51CEF200010A684FF6FF031A40CD
:100EB00060F30A2242F0806040F0FD7008607047E5
:100EC000002804BF012070472DE9F04381B042F2B1
:100ED0000008C4F202080446D8F800000D4600F0ED
:100EE000070081420CD9D8F8000020F00700284301
:100EF000C8F80000D8F8000000F00700A8426CD144
:100F0000206841F204098107C4F2020917D541079C
:100F100005D5D9F8001041F4E061C9F800100107C7
:100F200005D5D9F8001041F46051C9F80010D9F87E
:100F30000010A26821F0F0011143C9F80010C007A9
:100F400042D1D8F8000000F0070085420CD2D8F852
:100F5000000020F007002843C8F80000D8F800007F
:100F600000F00700A84238D12068410707D5D9F81A
:100F70000010E26821F4E0611143C9F80010000795
:100F800008D5D9F80000216920F4605040EAC1007A
:100F9000C9F80000D9F8002002F00C00082841F23E
:100FA0000020C0F27A004DD14CF68203C2F3834197
:100FB000C0F60003595CD20338D440F60010C0F2EA
:100FC0003D0048433EE000BF606859F8041C022819
:100FD00008D0012826D1890306D4012001B0BDE83C
:100FE000F08300BF8901F8D5D9F8001021F0030182
:100FF0000843C9F80000FFF777FE064641F288373C
:10100000D9F80000616800F00C00B0EB810F98D0B7
:10101000FFF76AFE801BB842F2D9032001B0BDE899
:10102000F08300BF8907D8D5DEE700BFD9F80020DC
:1010300045F6C213C2F34042C0F600039A5C48432F
:10104000B0FBF2F0D9F8001044F25D62C1F3031175
:10105000C0F60002515C40F2180220FA01F140F2A1
:101060000400C2F200000068C2F200021160FFF743
:1010700063FE002001B0BDE8F08300000F22026093
:1010800041F20402C4F20202136803F00303436056
:10109000136803F0F0038360136803F4E063C36034
:1010A00012684FF4E06303EAD202026142F20000E8
:1010B000C4F20200006800F00700086070470000FA
:1010C00040F2180041F20401C2F20000C4F2020131
:1010D0000068096844F26D62C1F30221C0F60002A3
:1010E000515CC8407047000040F2180041F2040112
:1010F000C2F20000C4F202010068096844F26D62A5
:10110000C1F3C221C0F60002515CC8407047000024
:10111000002804BF012070472DE9F04182B0044649
:10112000007841F20006C007C4F202060CD07068D5
:1011300000F00C00042840F081803068800303D563
:101140006068002800F04681207880071BD5706811
:1011500010F00C0F09D0706800F00C00082840F067
:1011600087807068C00300F183803068800703D5F2
:101170002069012840F02E813068616920F0F80074
:1011800040EAC10030602078000713D4207840077F
:101190002CD4E569002D00F01881706800F00C0077
:1011A000082840F0A780012D40F00481012002B002
:1011B000BDE8F081A069002800F084800020C4F21E
:1011C00042200121C0F88014FFF78EFD054600BFC4
:1011D000706A800700F1B280FFF786FD401B02288D
:1011E000F6D9032002B0BDE8F08100BFF0695FEAE4
:1011F000C00808D4F06940F08050F061F06900F058
:1012000080500090009847F20007C4F20007386849
:10121000C00549D4386840F480703860FFF764FD39
:10122000054600BF3868C0053ED4FFF75DFD401B92
:101230006428F7D9032002B0BDE8F081706800F09F
:101240000C00082803D17068C0033FF576AF6168D1
:101250003068002900F00C81B1F5A02F00F000816A
:10126000B1F5803F40F01A8140F480301CE100BFAE
:101270002069002840F20000C4F2422000F088807B
:1012800001210160FFF730FD054600BF306880078F
:101290003FF572AFFFF728FD401B0228F6D9032067
:1012A00002B0BDE8F08100BFE168306A002900F0BB
:1012B0009D80052900F09280012940F0AF8040F028
:1012C0000100B1E00020C4F242200021C0F88014E7
:1012D000FFF70AFD054600BF706A80077FF556AF2D
:1012E000FFF702FD401B0228F6D9032002B0BDE83B
:1012F000F08100BF0027C4F2422700203866FFF7C4
:10130000F3FC022D05460DD13068800140F1DE80EE
:10131000FFF7EAFC401B02284FF00300F4D902B0AB
:10132000BDE8F081306880014FD5FFF7DDFC401B40
:1013300002284FF00300F5D9F1E700BF40F2180092
:10134000C2F20000006844F6D351C1F26201A0FB72
:101350000101480A019000BF00BF0198411E00280A
:1013600001913FF413AF00BF0198411E0028019185
:101370003FF40CAF00BF0198411E002801913FF4DB
:1013800005AF00BF0198411E00280191E4D1FDE6A0
:1013900000210160FFF7A8FC054600BF3068800708
:1013A0007FF5F1AEFFF7A0FC401B02284FF00300D1
:1013B000F4D9B4E77068216A00F480328A4209D116
:1013C000616A00F47010884204D1002002B0BDE8C8
:1013D000F08100BF012002B0BDE8F08140F00400C0
:1013E0003062306A40F001001EE000BF20F00100D2
:1013F0003062306A20F004003062FFF775FC054669
:1014000041F28837306A800720D5FFF76DFC401B1A
:10141000B8424FF00300F5D981E700BF20F001008A
:101420003062306A20F004003062FFF75DFC054650
:1014300041F28837306A800708D4FFF755FC401B1B
:10144000B842F7D9032002B0BDE8F081B8F1000F2F
:101450003FF59FAEF06920F08050F06199E600BF43
:1014600040F480203060306840F480301CE000BFE1
:1014700020F480303060306820F480203060FFF746
:1014800033FC0546306880037FF55EAEFFF72CFC29
:10149000401B64284FF00300F4D940E720F480306B
:1014A0003060306820F480203060FFF71DFC054676
:1014B000306880033FF548AEFFF716FC401B6428F8
:1014C000F6D9032002B0BDE8F08100BF206AB0F574
:1014D000803F05D17168A26821F400311143716029
:1014E0007168626A21F4741111430843706001202D
:1014F0003866FFF7F9FB0446306880013FF565AFB9
:10150000FFF7F2FB001B02284FF00300F4D906E7B7
:1015100070B528B1416A29B100210161142106E0AA
:10152000012070BD4168B1F5827F02D01C210022EC
:1015300042500026866290F8511029B980F8506018
:10154000054600F039F82846022180F8511090E84D
:101550002E0002F482720C6803F4044324F0400469
:101560000C601A4405F4006305691A4405F002038F
:1015700045691A4405F001038569C4691A4405F4F4
:1015800000731A4404F03803046A1A4404F0800318
:10159000846A1A4304F400531A430A60042202EADC
:1015A00015424A60CA6922F40062CA610121466597
:1015B00080F85110304670BD70B586B0006843F6B3
:1015C0000001C4F20001002588420595CDE90355CC
:1015D00002952BD043F20001C4F20101884255D19B
:1015E00041F21800C4F20200016802AA41F48051DD
:1015F0000160016802F10C0601F48051019101992A
:101600000168032541F004010160006800F0040056
:1016100001900198A02002900220039040F6004023
:10162000C4F20100A0F580642BE000BF41F2180075
:10163000C4F20200416840F6004441F48041416038
:101640004168C4F2010401F48041019101990268EA
:1016500002A942F008020260006801F1080600F0E9
:101660000800019001984FF420400290022003905E
:10167000032005902046FFF723FA4FF48040CDE980
:10168000020502A920463560FFF71AFA06B070BDC0
:101690002DE9F04182B0044690F85100012819D19B
:1016A00060681D4617460E46B0F5827F01D1A068DE
:1016B000A0B1FFF719FB8046002E4FF0010018BFC4
:1016C000002F03D102B0BDE8F08100BF94F85000B4
:1016D000012811D1022002B0BDE8F081042084F875
:1016E00051002046314632463B46009500F0CEF987
:1016F00002B0BDE8F08100BF012084F85000042052
:10170000002184F851006165A663A787E7872163FC
:10171000A186E186A2682068B2F5004F2164616469
:1017200038D00168490640D5E168E08F002944D0EF
:1017300000287BD0681C0CD11BE000BFC068A16BE7
:1017400021F8020BA163E08F0138E087E08F0028C9
:101750006CD020688168C907F0D1FFF7C5FAA0EB0B
:101760000800A842F2D342E0FFF7BEFAE08F00285B
:101770005CD020688168C907F6D0C068A16B21F8E9
:10178000020BA163E08F0138E087E08F0028F0D1E1
:101790004CE000BF016821F040010160016821F4C4
:1017A0008041016001684906BED4016841F04001F2
:1017B0000160E168E08F0029BAD1B8B3681C0CD190
:1017C00024E000BF007BA16B0870A06B0130A06318
:1017D000E08F0138E087E08F40B320688168C90757
:1017E000F0D1FFF781FAA0EB0800A842F3D3012063
:1017F00084F85100002084F85000032002B0BDE8B6
:10180000F08100BFFFF770FAE08F78B1206881683F
:10181000C907F7D0007BA16B0870A06B0130A063F3
:10182000E08F0138E087E08F0028EFD16068B0F5E5
:10183000827F11D1A068B0F5004F02D0B0F5806F63
:101840000AD12168B0F5806F0A6822F040020A6070
:1018500002D12046012101E02046802100222B46B2
:10186000CDF8008001F0E8FF28B1606D40F0200065
:10187000606520206065012084F85100002084F814
:101880005000606D002818BF012002B0BDE8F08153
:101890002DE9F04182B01D4616460F460446FFF77B
:1018A00023FA94F8511001290ED18046002F4FF0F1
:1018B000010018BF002E03D102B0BDE8F08100BFC7
:1018C00094F85000012803D1022002B0BDE8F08155
:1018D000012084F850000320002184F85100616544
:1018E0002763A686E686A163A187E187A0682164B5
:1018F000B0F5004F2068616407D1016821F0400114
:101900000160016841F4804101600168490603D427
:10191000016841F0400101606168731EE268B1FA3C
:1019200081F1B3FA83F349095B09B2F5006F41EA2B
:10193000030139D131B137F8021BC1602763E08E52
:101940000138E086E08E002870D0681C0BD11AE0C8
:10195000216B31F8022BC2602163E08E0138E086F2
:10196000E08E002862D0206881688907F0D4FFF7F4
:10197000BBF9A0EB0800A842F2D338E0FFF7B4F9B6
:10198000E08E002852D0206881688907F6D5216B47
:1019900031F8022BC2602163E08E0138E086E08ED0
:1019A0000028F0D142E000BF39B139780173206BD3
:1019B00001302063E08E0138E086E08EB0B3681C11
:1019C0000BD123E0216B09780173206B0130206378
:1019D000E08E0138E086E08E40B320688168890798
:1019E000F0D4FFF781F9A0EB0800A842F3D301205F
:1019F00084F85100002084F85000032002B0BDE8B4
:101A0000F08100BFFFF770F9E08E78B1206881683F
:101A10008907F7D5216B09780173206B01302063AA
:101A2000E08E0138E086E08E0028EFD120460221CA
:101A300001222B46CDF8008001F0FEFE40B9204681
:101A4000802100222B46CDF8008001F0F5FE28B160
:101A5000606D40F02000606520206065A06838B9A6
:101A6000002001902068C168019180680190019870
:101A7000012084F85100002084F85000606D002897
:101A800018BF012002B0BDE8F08100002DE9F0434D
:101A900083B01E4615460F460446FFF725F994F815
:101AA00051108146012909D1002F4FF0010018BFC4
:101AB000002D0FD103B0BDE8F08300BF6068B0F522
:101AC000827F0DD104294FF00200F3D1A1680029D3
:101AD000EAD0EFE7002EEDD094F85000012803D1B2
:101AE000022003B0BDE8F083012084F8500094F890
:101AF0005100002104281CBF052084F851006165B5
:101B0000A563E687A6872763E6862068A686216404
:101B100061640168490603D4016841F04001016035
:101B20006168731EE268B1FA81F1B3FA83F3DDF8FC
:101B3000288049095B09B2F5006F41EA030165D1CC
:101B400031B137F8021BC1602763E08E0138E086AF
:101B5000012518F1010032D102E000BFFFF7C4F8FF
:101B6000E08E18B9E08F002800F0B8802068816806
:101B700089070CD5E18E51B1012D08D1216B0025CB
:101B800031F8022BC2602163E18E0139E186816860
:101B9000C907E3D0E18F0029E0D0C068A16B01251F
:101BA00021F8020BA163E08F0138E087D6E700BF80
:101BB000FFF79AF8A0EB0900404580F0AF80E08E77
:101BC00018B9E08F002800F08980206881688907B3
:101BD0000CD5E18E51B1012D08D1216B002531F8D2
:101BE000022BC2602163E18E0139E1868168C90759
:101BF000DED0E18F0029DBD0C068A16B012521F880
:101C0000020BA163E08F0138E087D1E739B1397861
:101C10000173206B01302063E08E0138E0860125DE
:101C200018F1010032D101E0FFF75EF8E08E10B943
:101C3000E08F002852D02068816889070ED5E18E98
:101C400061B1012D0AD1216B002509780173216B47
:101C5000206801312163E18E0139E1868168C9077D
:101C6000E2D0E18F0029DFD0C068A16B01250870A8
:101C7000A06B0130A063E08F0138E087D4E700BF9C
:101C8000FFF732F8A0EB0900404547D2E08E08B9D3
:101C9000E08F18B32068816889070ED5E18E61B1A5
:101CA000012D0AD1216B002509780173216B206871
:101CB00001312163E18E0139E1868168C907DFD0F6
:101CC000E18F0029DCD0C068A16B01250870A06BF2
:101CD0000130A063E08F0138E087D1E72046022180
:101CE00001224346CDF8009001F0A6FD40B9204600
:101CF000802100224346CDF8009001F09DFDB8B14F
:101D0000606D40F02000606520206065002084F850
:101D10005000012003B0BDE8F08300BF012084F82B
:101D20005100002084F85000032003B0BDE8F08388
:101D3000A06838B9002002902068C16802918068CC
:101D400002900298012084F85100002084F850008D
:101D5000606D002818BF012003B0BDE8F0830000CB
:101D60007047000070470000002804BF0120704742
:101D700010B590F83D1031B9002180F83C100446B0
:101D800000F070F82046022180F83D10016840F212
:101D9000FF740B68C4F2000442F6004CA142C4F286
:101DA000010C15DCB1F1804F1AD040F20042C4F2B0
:101DB0000002914214D0A14218DCB1F1804F1DD035
:101DC00040F20042C4F20002914217D01AE000BF74
:101DD000614505D040F60002C4F200029142EAD10A
:101DE000826823F070031343A142E6DD614505D00C
:101DF00040F60002C4F20002914203D1026923F4CA
:101E000040731343846923F08002D0F804E0C36870
:101E1000224361450A60CB62C1F828E002D14269E1
:101E2000CCF8302001224A610B69DB0703D00B6933
:101E300023F001030B6180F8462080F83E2080F8F3
:101E40003F2080F8402080F8412080F8422080F830
:101E5000432080F8442080F8452080F83D20002071
:101E600010BD00007047000090F83D1001291CBF14
:101E700001207047022180F83D10006840F2FF7297
:101E8000C168C4F20002904241F00101C16009DC66
:101E9000B0F1804F12D040F20041C4F200018842FC
:101EA0000CD012E042F60041C4F20101884205D094
:101EB00040F60001C4F20001884206D1816801F0B9
:101EC0000701062904BF00207047016841F00101A5
:101ED00001600020704700007047000070B50446A4
:101EE0000068C5680669B10716D515F0020113D060
:101EF0006FF002010161012121778069800703D021
:101F00002046FFF7E9FF05E0204600F08FF8204665
:101F100000F08EF800202077700719D515F0040026
:101F200016D020686FF004010161022121778069D9
:101F300010F4407F04D02046FFF7CEFF06E000BF3C
:101F4000204600F073F8204600F072F80020207759
:101F5000300717D515F0080014D020686FF008017D
:101F6000016104212177C069800703D02046FFF773
:101F7000B3FF05E0204600F059F8204600F058F87D
:101F800000202077F00619D515F0100016D0206833
:101F90006FF01001016108212177C06910F4407FC2
:101FA00004D02046FFF798FF06E000BF204600F06F
:101FB0003DF8204600F03CF800202077F00718BFDD
:101FC00015F0010002D1300609D412E020686FF04C
:101FD00001010161204600F02DF8300609D515F009
:101FE000800006D020686FF0800101612046FFF775
:101FF000B7FE700609D515F0400006D020686FF0D6
:1020000040010161204600F01FF8B00658BF70BDC6
:1020100015F0200008D021686FF0200220460A61E8
:10202000BDE87040FFF79EBE70BD00007047000025
:1020300070470000006842F60041C4F20101884286
:1020400018BF7047FEF756BE70470000704700008B
:1020500070470000B0B582B001680A68CC684B696F
:1020600002F02F05202D04F0200505D125B102B086
:10207000BDE8B04001F0D6BD5FEA027C1EBF03F0B0
:10208000010E04F4907313EB0E0341D1036BD506DC
:1020900018D5012B16D114F0100313D00022019291
:1020A0000A6801924A680192019A496949064BD42B
:1020B000818DC28DC38D002B18BF914240F0F481F9
:1020C00002B0B0BD13062DD514F080032AD090F8CD
:1020D0004120212AF4D18268B2F5805F03D10269E0
:1020E000002A00F06782026A531C036212784A6079
:1020F000C28C013A1304C284E2D1C86820F0800087
:10210000C860C86840F04000C86002B0B0BD00BF01
:10211000D30718BF14F4807340F0D080530700F148
:10212000D380D8E05206CBD514F04002C8D0CA689C
:1021300022F04002CA60202180F8411002B0BDE8C0
:10214000B04000F0C5BB00BFC16B0A68526893B2D3
:10215000002BB5D0858DAB42B2D2C28589692029CA
:1021600000F0A180016851E8031F026821F480712A
:1021700042E80313DBB1016851E8031F026821F450
:10218000807142E8031393B1016851E8031F0268AC
:1021900021F4807142E803134BB1016851E8031F39
:1021A000026821F4807142E80313002BDAD1016840
:1021B00051E8051F026821F0010142E80513C3B38D
:1021C000016851E8051F026821F0010142E805138A
:1021D0007BB3016851E8051F026821F0010142E864
:1021E000051333B3016851E8051F026821F00101AE
:1021F00042E80513002BDAD11BE000BF016851E86B
:10220000051F026821F0400142E80513DBB10168B7
:1022100051E8051F026821F0400142E8051393B11F
:10222000016851E8051F026821F0400142E80513EA
:102230004BB1016851E8051F026821F0400142E8F6
:102240000513002BDAD1202180F842100021016310
:10225000016851E8031F026821F0100142E80313EE
:10226000DBB1016851E8031F026821F0100142E868
:10227000031393B1016851E8031F026821F01001B4
:1022800042E803134BB1016851E8031F026821F0D3
:10229000100142E80313002BDAD1C16B0446084653
:1022A000FEF77AFB204602214163818DC28D891A97
:1022B00089B202B0BDE8B040FFF7C8BE436C43F03E
:1022C00001034364530706D5BEF1000F03D0436CEE
:1022D00043F002034364930706D5BEF1000F03D019
:1022E000436C43F004034364BCF1000F06D55EEA7F
:1022F000050303D0436C43F008034364436C002B95
:102300003FF4DEAE920605D525B1044601F08AFC05
:10231000216820464969426C01F0400102F0080240
:10232000891800F0B98000BF016851E8031F0268F6
:1023300021F4907142E80313BBB3016851E8031F15
:10234000026821F4907142E8031373B3016851E805
:10235000031F026821F4907142E803132BB3016854
:1023600051E8031F026821F4907142E80313002B27
:10237000DAD11AE0016851E8051F026821F0010175
:1023800042E80513DBB1016851E8051F026821F03E
:10239000010142E8051393B1016851E8051F026885
:1023A00021F0010142E805134BB1016851E8051F16
:1023B000026821F0010142E80513002BDAD1016B1C
:1023C000012924D1016851E8031F026821F010019E
:1023D00042E80313DBB1016851E8031F026821F0F2
:1023E000100142E8031393B1016851E8031F02682A
:1023F00021F0100142E803134BB1016851E8031FBB
:10240000026821F0100142E80313002BDAD12021E9
:1024100080F842100021016301684969490640F1D2
:10242000C380016851E8051F026821F0400142E8BD
:102430000513DBB1016851E8051F026821F0400176
:1024400042E8051393B1016851E8051F026821F0C5
:10245000400142E805134BB1016851E8051F0268CD
:1024600021F0400142E80513002BDAD1C16B0029AD
:1024700000F09A8043F61942C0F60002044608466E
:102480004A63FEF7ADFA00283FF41AAEE06B416BE9
:1024900002B0BDE8B04008470446FFF7D9FD002070
:1024A000606402B0B0BD00BF891A00BF026852E884
:1024B000032F036822F4907243E80325BDB302683A
:1024C00052E8032F036822F4907243E8032575B3A2
:1024D000026852E8032F036822F4907243E8032550
:1024E0002DB3026852E8032F036822F4907243E888
:1024F0000325002DDAD11AE0026852E8052F03689F
:1025000022F0010243E80525DDB1026852E8052FFB
:10251000036822F0010243E8052595B1026852E8FC
:10252000052F036822F0010243E805254DB102683A
:1025300052E8052F036822F0010243E80525002D2B
:10254000DAD1202280F8422000220263026852E899
:10255000032F036822F0100243E80325DDB102686F
:1025600052E8032F036822F0100243E8032595B1D7
:10257000026852E8032F036822F0100243E80325A3
:102580004DB1026852E8032F036822F0100243E8BD
:102590000325002DDAD1022289B2426302B0BDE8E0
:1025A000B040FFF753BD00BF02B0BDE8B040FFF739
:1025B0004FBD00BF026A32F8023B6FF35F234B60EE
:1025C000026295E5002804BF0120704710B504465B
:1025D00090F8410028B9002084F84000204600F01F
:1025E00063F8242084F841002068D4E90212C3680B
:1025F00023F40053C360036923F440531A43026178
:10260000D4E904231143C268194341F20C639A438D
:102610001143C1604169A26921F44071114343F63D
:102620000002C4F201029042416103D0FEF748FD6E
:1026300002E000BFFEF758FDD4E90023192148430A
:102640009900B0FBF1F048F21F5CC5F2EB1CA0FB57
:102650000C314FF69C734909C0F6FF7301FB030070
:10266000322303EB0010A0FB0C03F02000EA531010
:1026700000EB0110C3F3431108449060106920215E
:1026800020F490401061506920F02A005061D06819
:1026900040F40050D0600020606484F8411084F859
:1026A0004210606310BD000070B586B040F60004B3
:1026B000C4F20104006804F54051002688420596E2
:1026C000CDE90366029601D006B070BD41F2180054
:1026D000C4F20200016802AD41F48041016001686A
:1026E00001F4804101910199016841F00401016008
:1026F0000068294600F00400019001984FF4007032
:10270000029002200390032005902046FEF7D8F99E
:102710004FF48060CDE90206204629460496FEF774
:10272000CFF9252000210022FEF78EFB2520FEF7A1
:1027300079FB06B070BD0000704700002DE9F04342
:1027400081B0044690F84100202809D100294FF0BB
:10275000010018BF002A07D101B0BDE8F08300BF17
:10276000022001B0BDE8F0830020606421201D46F6
:102770000E4684F841001746FEF7B6FAA784E784B0
:10278000A1688146B1F5805F02D1206900285DD043
:1027900037460020E28C2168002A5DD06A1C24D0D4
:1027A000002D4AD0804600BF0868000608D4FEF716
:1027B0009BFAA0EB0900A8427AD82168C868F3E721
:1027C00017B117F8010B04E038F8020B00276FF37C
:1027D0005F204860E08C0138E084E08C0028E3D181
:1027E0003AE000BF0A68120609D40A68120606D445
:1027F0000A6812065CBF0A685FEA0262F2D51FB17E
:1028000017F8012B05E000BF30F8022B00276FF30B
:102810005F224A60E28C013AE284E28C002AE4D131
:102820001AE000BF30F8022B00276FF35F224A60E6
:10283000E28C013AE284E28C72B10A68120635D564
:10284000002FEFD017F8012BF1E700BF002730462B
:10285000E28C2168002AA1D1086840061ED42DB35D
:10286000681C14D1086840062AD40868400627D49A
:102870000868400624D4086840064FF00000F1D5EF
:102880000DE000BF2068C1680068400618D4FEF75C
:102890002BFAA0EB0900A842F4D909E0002020217E
:1028A00084F8411001B0BDE8F08300BFFEF71CFAC8
:1028B0000320202184F8411001B0BDE8F08300BF5F
:1028C0000020202184F8411001B0BDE8F083000011
:1028D00070470000FEE700002DE9F047ADF5007DF0
:1028E00040F600480446C4F2010802FB03F0164615
:1028F0008946470040464FF4807100221D46FEF78E
:10290000EDF9A01909EB05010138013982B28BB24A
:102910002046494600F080FB404640210122FEF758
:10292000DDF9F7B1DDF8209240F2303A00266D462D
:10293000C2F2000A3C46B7F5007F28BF4FF400748E
:1029400009EB1620F1B222462B4601F05DFA504603
:10295000294622464FF0FF33FEF79AFF3F1B2644DD
:10296000E8D140464FF480710122FEF7B7F90DF52A
:10297000007DBDE8F08700002DE9F047EF2823D85F
:1029800015468A09042A88BFBDE8F0872A18F02A6C
:10299000814688BFC0F1F00558189A46B0F5A07F6F
:1029A0000F4688BFC1F5A07A280428D00898ABB29A
:1029B00040F2501C40BA05F00301042BC2F2000C97
:1029C00004D2002310E000BFBDE8F087ACF108029C
:1029D00023F00306002300BF043322F8080F9E42B1
:1029E00050809080D080F7D149B101292CF8130094
:1029F00005D00CEB43020229508018BF908040F6AE
:102A00000048C4F2010840464FF480710022FEF7EE
:102A100065F909EB050107EB0A034A1E013B48462D
:102A2000394692B29BB200F0F7FA404640210122AB
:102A3000FEF754F95FEA0A4017D0680040F23039D7
:102A400040F25016002485B2C2F20009C2F200061C
:102A50001FFA8AF7484631462A464FF0FF33FEF701
:102A600017FF0134A0B2B842F4D340464FF480714E
:102A70000122BDE8F047FEF731B9000080B582B011
:102A8000844600200021F0224FF4A073CDF800C04E
:102A9000FFF772FF02B080BD2DE9F04184B040F62F
:102AA0000044C4F2010420464FF480710022002744
:102AB000FEF714F9204680210022FEF70FF90520C9
:102AC000FDF7EAFF2046802101224FF00108FEF7C2
:102AD00005F92046402100228DF80080FEF7FEF81F
:102AE00040F23035C2F200056946284601224FF017
:102AF000FF33FEF7CDFE4FF47A70FDF7CDFFCB200C
:102B00008DF80000204640210022FEF7E7F86946D4
:102B1000284601224FF0FF33FEF7BAFE0220019053
:102B200042F63940C3F20040009020464021012285
:102B3000FEF7D4F86946284605224FF0FF33FEF72A
:102B4000A7FECF208DF80000204640210022FEF78E
:102B5000C5F86946284601224FF0FF33FEF798FE7C
:102B60004CF20010C0F230000090204640210122BB
:102B7000FEF7B4F86946284603224FF0FF33FEF70C
:102B800087FEE8208DF80000204640210022FEF755
:102B9000A5F86946284601224FF0FF33FEF778FE7C
:102BA0008520C0F278000090204640210122FEF7E7
:102BB00095F86946284603224FF0FF33FEF768FE7A
:102BC000EA208DF80000204640210022FEF786F81A
:102BD0006946284601224FF0FF33FEF759FE204692
:102BE00040210122ADF80070FEF778F869462846CA
:102BF00002224FF0FF33FEF74BFEED208DF8000070
:102C0000204640210022FEF769F869462846012245
:102C10004FF0FF33FEF73CFE40F26430C8F2121072
:102C20000090204640210122FEF758F869462846C8
:102C300004224FF0FF33FEF72BFEF7208DF8000043
:102C4000204640210022FEF749F869462846012225
:102C50004FF0FF33FEF71CFE20208DF800002046C9
:102C600040210122FEF73AF86946284601224FF03A
:102C7000FF33FEF70DFEC0208DF8000020464021F6
:102C80000022FEF72BF86946284601224FF0FF3359
:102C9000FEF7FEFD23208DF8000020464021012292
:102CA000FEF71CF86946284601224FF0FF33FEF775
:102CB000EFFDC1208DF80000204640210022FEF7E4
:102CC0000DF86946284601224FF0FF33FEF7E0FD7C
:102CD00010208DF80000204640210122FDF7FEFF64
:102CE0006946284601224FF0FF33FEF7D1FDC5208B
:102CF0008DF80000204640210022FDF7EFFF6946D5
:102D0000284601224FF0FF33FEF7C2FD42F63E0097
:102D1000ADF80000204640210122FDF7DFFF6946A3
:102D2000284602224FF0FF33FEF7B2FDC7208DF890
:102D30000000204640210022FDF7D0FF69462846CA
:102D400001224FF0FF33FEF7A3FD86208DF800002F
:102D5000204640210122FDF7C1FF69462846012295
:102D60004FF0FF33FEF794FD362620464021002227
:102D70008DF80060FDF7B2FF6946284601224FF04A
:102D8000FF33FEF785FD48208DF8000020464021E6
:102D90000122FDF7A3FF6946284601224FF0FF33C9
:102DA000FEF776FD3A208DF80000204640210022F3
:102DB000FDF794FF6946284601224FF0FF33FEF7E6
:102DC00067FD55208DF80000204640210122FDF7C7
:102DD00085FF6946284601224FF0FF33FEF758FD74
:102DE000B1208DF80000204640210022FDF776FF3B
:102DF0006946284601224FF0FF33FEF749FD4FF4A4
:102E0000C050ADF80000204640210122FDF766FFCA
:102E10006946284602224FF0FF33FEF739FDB620FF
:102E20008DF80000204640210022FDF757FF69463B
:102E3000284601224FF0FF33FEF72AFD48F2082012
:102E4000C0F227000090204640210122FDF746FFF6
:102E50006946284603224FF0FF33FEF719FDF220A2
:102E60008DF80000204640210022FDF737FF69461B
:102E7000284601224FF0FF33FEF70AFD204640218D
:102E800001228DF80070FDF729FF694628460122CE
:102E90004FF0FF33FEF7FCFC26208DF800002046A3
:102EA00040210022FDF71AFF6946284601224FF013
:102EB000FF33FEF7EDFC2046402101228DF8008013
:102EC000FDF70CFF6946284601224FF0FF33FEF75D
:102ED000DFFCE0208DF80000204640210022FDF7B5
:102EE000FDFE6946284601224FF0FF33FEF7D0FC75
:102EF00040F60E10039040F23770C0F2103002908E
:102F000040F60E00CFF24E10019043F20F10C0F6C3
:102F10002B400090204640210122FDF7DFFE69464C
:102F200028460F224FF0FF33FEF7B2FCE1208DF868
:102F30000000204640210022FDF7D0FE69462846C9
:102F400001224FF0FF33FEF7A3FC43F23160C0F2E1
:102F50000F00039040F64800C0F60F40029040F288
:102F60001170CCF23110019040F60060C0F21430C4
:102F70000090204640210122FDF7B0FE6946284618
:102F80000F224FF0FF33FEF783FC11208DF8000075
:102F9000204640210022FDF7A1FE69462846012275
:102FA0004FF0FF33FEF774FC7820FDF775FD292004
:102FB0008DF80000204640210022FDF78FFE694673
:102FC000284601224FF0FF33FEF762FC20464021E5
:102FD00000228DF80060FDF781FE69462846012237
:102FE0004FF0FF33FEF754FC88208DF80000204698
:102FF00040210122FDF772FE6946284601224FF06A
:10300000FF33FEF745FC20464FF480710122FDF7A7
:1030100065FE04B0BDE8F0812DE9F04383B040F6D1
:10302000004805462A20C4F2010814460F468DF8D0
:1030300009004046402100221E46FDF74FFE40F2A7
:103040003039C2F200090DF10901484601224FF062
:10305000FF33FEF71DFC280A8DF80500200A8DF8C5
:1030600007004046402101228DF806508DF80840A7
:10307000FDF734FE0DF10501484604224FF0FF3301
:10308000FEF706FC2B208DF80A0040464021002266
:10309000FDF724FE0DF10A01484601224FF0FF33EF
:1030A000FEF7F6FB380A8DF80100300A8DF80300B0
:1030B0004046402101228DF802708DF80460FDF732
:1030C0000DFE0DF10101484604224FF0FF33FEF7DB
:1030D000DFFB2C208DF80B00404640210022FDF73D
:1030E000FDFD0DF10B01484601224FF0FF33FEF7C5
:1030F000CFFB03B0BDE8F08340F60040C4F201000E
:103100004FF480710122FDF7E9BD00002DE9F04F79
:1031100089B0074640F6004016468946C4F20100D1
:103120004FF4807100221D46FDF7D8FD3478002C45
:1031300000F0D0805FFA85F8C5F30720A8F10102FE
:1031400033460028A0F1010C9246079000F08080E1
:10315000B8F1000FCDF808C000F09A80DDE9131037
:1031600040F230354FEA112B4FEA102AC2F2000527
:103170000DF1220601920BE0049FDDF81490DDE9C9
:10318000012C039B474413F8014F002C00F0A28050
:10319000B8B24044F0280CD3079989441FFA89F04B
:1031A00008448009042800F29580202C4FF0000785
:1031B000E9D0B8180CEB0901039382B28BB2B8B214
:1031C0001FFA89F10497CDF81490FFF725FF0799AE
:1031D000A4F1200048431299002701EB400006901B
:1031E00004E000BF079801378742C5D006984FF02A
:1031F000000930F8174017E0149840218DF821009D
:1032000040F60040C4F2010001228DF820A0FDF735
:1032100065FD284608A902224FF0FF33FEF738FB70
:1032200009F10109C845DDD004FA09F00004E3D52D
:10323000139840218DF8230040F60040C4F20100AD
:1032400001228DF822B0FDF749FD28463146E2E71C
:103250000CEB09005E1C85B20CE000BFB81882B20E
:10326000B8B249462B46FFF7D7FE5246474416F8F8
:10327000014B7CB3B8B24044F028EFD34FEA991029
:10328000042827D8202C4FF00007E7D1EFE700BF34
:103290005D1C0FE0B8180CEB090182B28BB2B8B21A
:1032A0001FFA89F1FFF7B8FEDDF808C0524615F89D
:1032B000014B7CB1B8B2F028ECD3079989441FFACE
:1032C00089F008448009042804D8202C4FF0000716
:1032D000E0D1ECE740F60040C4F201004FF4807109
:1032E0000122FDF7FBFC09B0BDE8F08FB0B584B05A
:1032F0004FF6FF704FF6FF75FFF7C0FB32241B201F
:10330000B921BB2219230094FFF7E6FA6424462072
:10331000462164225F230094FFF7DEFA40F210009A
:10332000C2F20000D0E9003000214CF62712CDE9AE
:103330000001C0F6000212204FF48C710295FFF7D5
:10334000E5FE04B0B0BD0000FEE700002DE9F04F3F
:1033500083B040F2F80540F60004C2F20005C4F262
:1033600001042E7820460221FDF7B2FCA6B3002806
:1033700040F0B5803220FDF78FFB20460221FDF79B
:10338000A7FC002840F0AB8020460221FDF7A0FCFE
:103390000028F9D040F20807C2F20007796868787F
:1033A00001EB00167068002800F09580AA78042AC6
:1033B00000F29180531CAB704CF6D403C0F60003AE
:1033C00005EB8202984251622ED00021786069702C
:1033D000397000F0E9FA7EE0002840F09781322051
:1033E000FDF75AFB20460221FDF772FC002840F051
:1033F0008D8100BF20460221FDF76AFC0028F9D02C
:103400000120288040F208024CF69400C2F200022B
:10341000C0F60000002350600021137003B0BDE827
:10342000F04F00F0C1BA00BF336805F138094CF61F
:103430002C12C0F6000248462021FCF7E3FEB368D8
:1034400013B34CF62C1805F1030AC0F600085046D9
:1034500010214246FCF7D6FEB36805F1130B58461F
:1034600010214246FCF7CEFE4CF6EF08C0F60008ED
:103470000FF29C325046414601F0C4F80FF29432EC
:103480005846414601F0BEF840F2307043F6F13242
:10349000C2F2000000210FF2803CEB1CC0F60002DB
:1034A000C0E904C1C0E906320FF2783C05F113030C
:1034B000C0E90091C0E90211C0E908C1C0E90A32BF
:1034C000C0E90C11C0E90E110122397001217860A8
:1034D0006A7000F0EDFAF16809B1B06888472046DB
:1034E0000421FDF7F5FB002853D13220FDF7D4FA73
:1034F00020460421FDF7ECFB00284AD12046042198
:10350000FDF7E6FB0028F9D0A87888B10138A8704B
:10351000C0B205EB8000406A40F20801C2F200012F
:10352000002248600A7000216A7000F03DFA30E025
:1035300040F20800C2F200000121002701704FF69E
:10354000FF702F804FF6FF78FFF798FA32261B2086
:10355000B921BB2219230096FFF7BEF96426462045
:10356000462164225F230096FFF7B6F940F210006F
:10357000C2F20000D0E900304CF62712CDE9000776
:10358000C0F6000212204FF48C71CDF80880FFF7CE
:10359000BDFD20460121FDF79BFB002840F0A980DE
:1035A0003220FDF779FA20460121FDF791FB002832
:1035B00040F09F8020460121FDF78AFB0028F9D0CA
:1035C00040F20806C2F20006706840F2E0526978E4
:1035D000C2F2000290420FD040F23072C2F20002FA
:1035E000904233D000293BD04B1E3778DAB2BA4232
:1035F0006B7069D2337027E0002000BFC3B21B019B
:10360000D358A3B140F00103DFB23F01D7596FB1E6
:1036100040F00203DFB23F01D7593FB140F003034E
:10362000DFB23F01D7590430002FE7D11846C9B3A4
:103630004B1E3078DAB282426B7041D2093830705A
:1036400040F2E050C2F20000114650E00120012992
:1036500008BF0220687040F23070C2F2000033E010
:10366000034653F8101F4FF0000C00294FF00001E3
:1036700036D041F00107FAB212019A5872B341F004
:103680000207FAB212019A5842B341F00307FAB2A4
:1036900012019A5812B30431CAB212019A58002A80
:1036A000E7D11CE001386870C1B239204843400AB4
:1036B00000EBC000307040F2E050C2F2000016E0B3
:1036C00040F2E050C2F20000002200F04DFA7068B3
:1036D0006978012200F048FA0BE000BF39466970B2
:1036E000C9B2B1F1080228BF944686F800C000F0C4
:1036F0005BF920460821FDF7EBFA38B93220FDF7D7
:10370000CBF920460821FDF7E3FA18B103B0BDE874
:10371000F08F00BF20460821FDF7DAFA0028F9D023
:1037200040F20804C2F20004606840F2E052697896
:10373000C2F20002904215D040F23072C2F2000292
:1037400090423FD000EB01121269002A4ED023783C
:103750004F1CFAB203F1090696426F703BD8013351
:1037600029E000BF002000BFC3B21B01D3589BB1AA
:1037700040F00103DBB21B01D3586BB140F00203F0
:10378000DBB21B01D3583BB140F00303DBB21B019A
:10379000D3580430002BE7D102EB0110006948B385
:1037A0002378481CC2B20933687040F2E05093425B
:1037B000C2F200000FD81146237003B0BDE8F04FED
:1037C00000F0F2B80220022908BF0120687040F220
:1037D0003070C2F20000002200F0C6F9606869781B
:1037E000012203B0BDE8F04F00F0BEB900226A70BC
:1037F00006E000BF002240F2E0506A70C2F2000012
:103800000021227003B0BDE8F04F00F0CDB800BF3A
:1038100030310000303200004348494555204449CA
:10382000000000004348494555205645000000006F
:10383000FEE70000704700002DE9F04381B0089CCE
:10384000984615460E468146FDF74EFA201A00EBC3
:103850000804FDF749FA40F21801C2F200010968B4
:10386000C1F3CB3161430091D9F800108A6832402E
:10387000921BB2FA82F2520995423DD0074618F1E6
:10388000010031D0FDF730FAC01BA04238D20098B9
:1038900000990028A1F101010091D9F80010896870
:1038A00008BF044601EA0600801BB0FA80F0400918
:1038B0008542E7D120E000BF88683040801BB0FA25
:1038C00080F04009854217D088683040801BB0FAEC
:1038D00080F0400985420FD088683040801BB0FAE4
:1038E00080F04009854207D088683040801BB0FADC
:1038F00080F040098542DFD1002001B0BDE8F083AF
:10390000D9E900014268B1F5827F22F0E00242600D
:103910000BD1D9F80810B1F5004F02D0B1F5806F86
:1039200003D1016821F040010160D9F82810B1F5F8
:10393000005F07D1016821F400510160016841F482
:1039400000510160012089F85100002089F85000E1
:10395000032001B0BDE8F0837047000070B5ADF5FD
:10396000167D01240DF106050BA600BF2846062191
:1039700032462346FCF746FC0134642C05F106056B
:10398000F4D10DF106030020002140F2522200F094
:1039900095FA0DF5167D70BD253033645233000065
:1039A00070470000704700002DE9F04F87B0069087
:1039B0004FF6FF700F464FF6FF74FFF75FF840F2C7
:1039C0001000C2F2000003C840F208020591C0F3E3
:1039D0000721C2F2000220F47F4092F8009040EAF2
:1039E00001200E1D04904FF0000A00204FF0000B44
:1039F00033E000BF0598049BCDE9000A1FFA88F167
:103A00000A200294FFF782FB40F21005C2F2000583
:103A1000D5E900304CF61112CDE9000A12204FF41E
:103A20008C71C0F600020294FFF770FBD5E90030FC
:103A30004CF6FF02CDE9000AB6204FF48C71C0F6B7
:103A400000020294FFF762FBBBF1080F0BF1010BC0
:103A500009F101095FFA8BF026D25FFA89F1069B22
:103A60000A019A5802B37043B94200F10A08C1D161
:103A7000069A08303C4602EB011781B20020F02282
:103A8000334640F2FF750095FEF776FF05983A68D9
:103A9000049B27464FF6FF74CDE9000A1FFA88F110
:103AA0000A200295AEE700BF07B0BDE8F08F000026
:103AB0002DE9F04F85B082464FF6FF700C46FEF7B9
:103AC000DDFFDAF80020002A4AD040F21000C2F2EE
:103AD000000003C80491C0F3072120F47F400E1DAD
:103AE00040EA012755464FF0000840F2FF7916E002
:103AF00004981FFA8BF10090002001900A203B46A9
:103B00004FF6FF750295FFF701FB08F101085FFA18
:103B100088F001015AF801200AEB001502B35FFAA0
:103B200088F106FB01F0A14200F10A0BE0D15FEA47
:103B30000861DDD0083081B20020F0223346CDF894
:103B40000090FEF719FF04982A6800900020019069
:103B50001FFA8BF10A203B46CDF80890D3E700BF4F
:103B600005B0BDE8F08F00000B01C358002B08BF63
:103B700070472DE9F04383B040F21003C2F2000316
:103B8000D3E9007840F20803C2F200031C7800EB8E
:103B90000116C7F30720091B031DC9B2594301F1E0
:103BA0000A05083127F47F4747EA002440F2FF77EF
:103BB000002A89B24FF000004FF0F00208BF4FF624
:103BC000FF7700974FF00009FEF7D6FE3268A9B2E2
:103BD0000A202346CDE900890297FFF797FA03B040
:103BE000BDE8F08340F2E030C2F20000FEF776B9A3
:103BF000002808BF704710B50446FCF797FC82B256
:103C000040F2B000C2F2000021464FF0FF33BDE8A1
:103C10001040FEF793BD0000406A0021C185C184B9
:103C2000FEF716BA81B090F84210222921D183689C
:103C30000246B3F5805F09D152F8281F52F8183CAC
:103C4000002B63D003685B680AE000BF52F8281FAE
:103C500013B90369002BF5D003685B6803F07F0399
:103C60000B70116801311160C18D01390A04C185E1
:103C700002D001B0704700BF0168CA6822F020027C
:103C8000CA60CA6822F48072CA604A6922F00102DE
:103C90004A61202180F8421000214163026B012A11
:103CA0003CD10163016851E8031F026821F0100153
:103CB00042E80313DBB1016851E8031F026821F0F9
:103CC000100142E8031393B1016851E8031F026831
:103CD00021F0100142E803134BB1016851E8031FC2
:103CE000026821F0100142E80313002BDAD10168C9
:103CF0000A68D20606D5002200920A680092496836
:103D000000910099818D01B0FEF7A0B90268526858
:103D10006FF35F2221F8022B8162A5E701B0FEF765
:103D20000BBD000040F2B000C2F20000FEF792B9F5
:103D3000FEE700002DE9F04182B040F60044C720C4
:103D4000C4F201048DF8040006208DF80500204619
:103D50004FF480510022FCF7C1FF40F28835C2F2D7
:103D600000050DF10501284601224FF4FA63FDF725
:103D70008FFD20464FF480510122FCF7AFFF052054
:103D80004FF00508FCF788FE20464FF480510022D2
:103D9000FCF7A4FF01A9284601224FF4FA63FDF7BE
:103DA00077FD20464FF480510122FCF797FF0DF17B
:103DB00007060DF1060700BF20464FF48051002290
:103DC0008DF80780FCF78AFF2846314601224FF420
:103DD000FA63FDF75DFD28463946012241F288333A
:103DE000FDF756FC20464FF480510122FCF776FF88
:103DF0009DF80600C00703D00120FCF74DFEDBE76D
:103E000002B0BDE8F0810000F0B583B01546032292
:103E100040F600468DF80720020AC4F201068DF82C
:103E200008208DF809008DF80A1030464FF48051B3
:103E300000221C46FCF752FF40F28837C2F200070E
:103E40000DF10701384604224FF4FA63FDF720FD17
:103E5000AAB23846214641F28833FDF719FC3046B4
:103E60004FF480510122FCF739FF03B0F0BD000090
:103E700010B582B040F6004449F66610C4F2010461
:103E8000ADF8060020464FF480510022FCF726FFD3
:103E900040F28830C2F200000DF1060102224FF418
:103EA0007A73FDF7F5FC20464FF480510122FCF7B0
:103EB00015FF6420FCF7F0FD02B010BD2DE9F04FB6
:103EC000CBB00191114440F600450091013940F218
:103ED0008834C4F201054FEA112B4FEA101AC2F2DE
:103EE000000408AF4FF005080DF22B164FF0000943
:103EF000069303920291079008E000BF09F10109BF
:103F00001FFA89F083450AF1010A5DD306208DF876
:103F1000200028464FF480510022FCF7DFFE2046A7
:103F2000394601224FF4FA63FDF7B2FC28464FF4FC
:103F300080510122FCF7D2FE0520FCF7ADFD2020C8
:103F40008DF820004FEA1A108DF821004FEA0A1070
:103F50008DF8220000208DF8230028464FF4805170
:103F60000022FCF7BBFE2046394604224FF4FA63D8
:103F7000FDF78EFC28464FF480510122FCF7AEFE7F
:103F800028464FF4805100228DF82080FCF7A6FED1
:103F90002046394601224FF4FA63FDF779FC2046AA
:103FA0003146012241F28833FDF772FB28464FF477
:103FB00080510122FCF792FE9DF82B01C0079DD095
:103FC0000120FCF769FDDBE707F16400049000982D
:103FD000DDF80CA007F10408DDF81C90019FB0F596
:103FE000807F54464FF0060028BFC7F580748DF8D7
:103FF0002B0128464FF48051002207EB0926FCF7DD
:104000006DFE40F28830C2F200000DF22B11012249
:104010004FF4FA63FDF73CFC28464FF4805101222F
:10402000FCF75CFE0520FCF737FD02208DF8200030
:10403000300C8DF82100300AA6B28DF8237004F1FF
:1040400004078DF8220026B1069940463246FCF757
:104050008CFABCB2FA2C28464FF480514FF0000283
:10406000CDF8148012D9FCF739FE40F28834C2F240
:10407000000408A9204664224FF4FA63FDF708FC07
:10408000A7F164000499C2B2204607E0FCF726FEBF
:1040900040F28830C2F2000008A922464FF4FA63C9
:1040A000FDF7F6FB28464FF480510122FCF716FE7F
:1040B0000520FCF7F1FC04208DF82B0128464FF475
:1040C00080510022FCF70AFE40F28830C2F2000064
:1040D0000DF22B1101224FF4FA63FDF7D9FB2846AC
:1040E0004FF480510122FCF7F9FD0520FCF7D4FCC8
:1040F0000298B0F5807F03D24BB0BDE8F08F00BFCF
:1041000040F28834AAEB060809F10109C2F2000462
:104110000DF22B173CE000BF28464FF480510022DF
:10412000FCF7DCFDBAB25C46584608A94FF4FA63C6
:10413000FDF7AEFB28464FF480510122FCF7CEFD7F
:104140000520A8EB0A085644FCF7A6FC04208DF8CD
:104150002B0128464FF480510022FCF7BFFD0DF2E1
:104160002B172046394601224FF4FA63FDF790FBE6
:1041700028464FF480510122FCF7B0FD0520FCF7E2
:104180008BFCDDF81CB009F10109BBF1010BB3D0C8
:10419000C2460620CDF81CB0B8F5807F28BF4FF48A
:1041A000807A8DF82B0128464FF480510022FCF7CD
:1041B00095FD2046394601224FF4FA63A346FDF7E8
:1041C00067FB28464FF480510122FCF787FD05204C
:1041D000FCF762FC02208DF820004FEA19208DF8D0
:1041E00021000020B8F1000F0AF104078DF8229099
:1041F0008DF8230090D00698524681190598FCF757
:10420000B4F9B8F1F70F87D328464FF48051002254
:10421000FCF764FD584608A964224FF4FA63FDF7E1
:1042200037FBA7F1640004995C46C2B258467DE7AB
:104230004EF60C50BFF34F8FCEF2000001680422FF
:1042400001F4E061C0F2FA5211430160BFF34F8FF5
:1042500000BF00BF00BF00BFFAE7000070470000CA
:1042600070B584B040F28001C2F2000188422FD0C4
:10427000183188421CBF04B070BD40F21005C2F274
:104280000005D5E900304FF478464CF6E4024FF6CD
:10429000FF74CDE90006C0F60002282064210294D4
:1042A000FEF734FFFFF746FD1420FCF7F5FBD5E9D8
:1042B000003023A2CDE90006282064210294FEF7F5
:1042C00025FF4FF4FA60FCF7E7FBFFF7B1FF00BFF3
:1042D00040F21005C2F20005D5E900304FF47846EF
:1042E0004CF6E4024FF6FF74CDE90006C0F600027A
:1042F000282064210294FEF709FFFFF72FFB14200A
:10430000FCF7CAFB45F6C413C0F6000332200021B7
:1043100042F21C52FFF7D2FD1420FCF7BDFB47F61A
:104320004A63C0F600036420002144F62062FFF7D0
:10433000C5FD1420FCF7B0FBD5E9003003A2B9E7B6
:10434000446120586F6120586F6E67004461204EB1
:10435000617020586F6E6700704700007047000062
:1043600010B504460069A18AFCF7B2FCA178884226
:1043700005D0A0700120E070FCF7B6FC6060E0782A
:1043800070B1FCF7B1FC6168401A0F2808D3A0781F
:1043900000212070E1706178884205D120E000BFE3
:1043A0002078617888421BD080B1FCF79DFCA16821
:1043B000401AB0F57A7F02D82046FFF74FFF20461B
:1043C000FFF7CCFF0020207308E000BF012020731E
:1043D0002046FFF7C1FFFCF787FCA06020786070E3
:1043E000207B68B1FCF780FCA168401A41F288315B
:1043F000884238BF10BD2046FFF732FF00202073EF
:1044000010BD0000016182827047000090B0FCF78F
:104410007FFC00240120CDE90B44CDE9094406903E
:104420000A904FF4E0104FF4803102250F9006A857
:10443000CDE90714CDE90D51FCF76AFE20B1EFF389
:10444000108072B6FEE700BF4FF480600F26CDE902
:10445000040401A80221CDE901650394FCF730FDB5
:1044600020B1EFF3108072B6FEE700BF002741F2E3
:104470001800CDE90877CDE90677C4F2020001689B
:1044800040F6000841F0200101600168C4F2010813
:1044900001F0200101910199016808F5806941F05E
:1044A000040101600168002201F0040101910199F9
:1044B00001684FF48F5541F00801016000684FF426
:1044C0008F5100F00800019001984846FCF706FC67
:1044D000CDE9066706AE0124404631460894FCF754
:1044E000EFFA0220099048463146CDE90654089774
:1044F000FCF7E6FA40F2303008F52051C2F2000035
:104500004FF482724FF4007380E886000A21C0E9FC
:104510000377C0E90573C761C0E90877C0E90A718C
:10452000FCF7F6FF20B1EFF3108072B6FEE700BF94
:1045300040F28006C2F2000608F54051304640F8CD
:10454000301F4FF416510C22C0E90117C0E9037760
:10455000C0E90527C761FEF735F828B1EFF31080F1
:1045600072B600BFFEE700BF40F28830A8F55041A8
:10457000C2F200004FF4827200234FF40077082546
:1045800080E80E000A21C0E90333C0E90537C561A0
:10459000C0E90833C0E90A31FCF7BAFF20B1EFF3F4
:1045A000108072B6FEE700BF304641460422FFF796
:1045B00029FF06F11807384641460822FFF722FF77
:1045C000FFF756FC484620210122FCF787FB01201B
:1045D000FCF762FAFEF790FDFEF75EFA40F21C006F
:1045E000C2F200000421FCF743F9FEF77FFE00BF92
:1045F0003046FFF7B5FE3846FFF7B2FEFEF7A6FEDF
:10460000F6E70000F0B581B014460D460646FBF70C
:104610008DFF07462846FBF789FF874206D3F1192D
:104620000E1A30462946FBF7E5FF08B101B0F0BD90
:104630003046214601B0BDE8F040FBF753BF3038AB
:104640000A2801D2012070470020704704000008AA
:104650000000000000000002000100001000000047
:104660000000000000010203040607080900000022
:104670000001020304000000000000000000000030
:10468000000000000000000000000000000000002A
:10469000000000000000000000000000000000001A
:1046A00000000000000000000000E003E003E00361
:1046B000E003E003E003E003E003C003C003C00144
:1046C000C001C001C001C001000000000000E00303
:1046D000E003E003000000000000000000003C1EBA
:1046E0003C1E3C1E3C1E3C1E3C1E3C1E00000000AE
:1046F00000000000000000000000000000000000BA
:1047000000000000000000000000000000000000A9
:104710000000CE01CE03DE039E039C039C07FF3FF7
:10472000FF7F3807380F780F780F780EFFFFFFFFF5
:10473000F01EF01CE01CE03CE03DE0390000000011
:10474000000000000000FC03FE0FEE1FE01EE01E54
:10475000E01EE01EE01FE00FE007F003FC01FE0199
:10476000FE01FE01FE01FE01FE01FE3DFC3FF00FD9
:10477000E001E001000000000000033E07F78FE7C2
:104780008EE79EE3BCE3B8E7F8E7F0F7E03FC0014F
:10479000FF03FF07F307F30FF31EF33CF338F3783F
:1047A0007FF03FE000000000000000000000E00794
:1047B000F80F780F781F781F781F780FF00FE00F31
:1047C000801FC37FC3FBE7F3F7F1F7F0FFF07FF043
:1047D0003EF87F7CFF3FEF1F00000000000000005C
:1047E0000000E003E003E003E003E003C003C001D6
:1047F00000000000000000000000000000000000B9
:1048000000000000000000000000000000000000A8
:104810000000000000003F007C00F001E001C00348
:10482000C00780078007800F000F000F000F000FE8
:10483000000F000F800F80078007C007C003E00152
:10484000F0017C003F000F000000007E001FC00749
:10485000C003E001F001F000F000F80078007800FB
:104860007800780078007800F800F000F000F0019F
:10487000E001C003C007001F007E00780000E003D5
:10488000C003C001CE39FF3F7F3F20037003F8070C
:10489000780F3C1F380600000000000000000000F8
:1048A0000000000000000000000000000000000008
:1048B0000000000000000000000000000000C00137
:1048C000C001C001C001C001C001C001FFFFFFFF66
:1048D000C001C001C001C001C001C0010000000052
:1048E00000000000000000000000000000000000C8
:1048F00000000000000000000000000000000000B8
:104900000000000000000000E003E003E003E0031B
:10491000E001E001E001C0018003000000000000B0
:104920000000000000000000000000000000000087
:10493000FE3FFE3F000000000000000000000000FD
:104940000000000000000000000000000000000067
:104950000000000000000000000000000000000057
:104960000000000000000000000000000000000047
:10497000E003E003E003E0030000000000000000AB
:1049800000000F000F001E001E003C003C007800DD
:104990007800F000F000E001E001C003C0038007F0
:1049A0008007000F000F001E001E003C003C007836
:1049B000007800F00000F007F80F7C1F3E3E1E3C20
:1049C0001F7C1F7C0F780F780F780F780F780F7887
:1049D0000F781F7C1F7C1E3C3E3E7C1FF80FF007AB
:1049E00000000000000000000000F000F007F03FB1
:1049F000F03FF001F001F001F001F001F001F001F1
:104A0000F001F001F001F001F001F001F001F0011E
:104A1000FF3FFF3F00000000000000000000E00F2B
:104A2000F83F7C3C3C003E003E003E003C003C0029
:104A30007C00F800F001E003C0078007000F001EB3
:104A4000003E003CFE3FFE3F000000000000000072
:104A50000000F00FF81F7C1C3E003E003E003C00B2
:104A60003C00F800F00FF80F7C003E001E001E0016
:104A70001E001E003E007C1CF81FE01F000000000E
:104A80000000000000007800F800F800F801F803CA
:104A9000F807F807780F781E781E783C78787878D1
:104AA000FFFFFFFF7800780078007800780078003A
:104AB00000000000000000000000FC1FFC1FFC1FA5
:104AC000001E001E001E001E001EE01FF81FFC003E
:104AD0007C003E003E001E003E003E003C007C1C70
:104AE000F81FE01F00000000000000000000FC01B3
:104AF000FE078E0F001F001E003E003C003CF83DEC
:104B0000FC3F3E7F1F7E0F3C0F3C0F3C0F3C0F3E97
:104B10001F1E3E1FFC0FF0030000000000000000FD
:104B20000000FF3FFF3FFF3F0F001E001E003C0044
:104B300038007800F000F000E001E001C003C0039D
:104B40008007800F800F000F001F001F0000000073
:104B5000000000000000F807FC0F3E1F1E1E1E3E56
:104B60001E3E1E1E3C1FF80FF007F80FFC1E3E3EB7
:104B70001F3C1F7C0F7C0F7C1F3C3E3FFC1FF0073F
:104B800000000000000000000000F007F80F7C1E8D
:104B90003E3C1E3C1F7C1F7C1F7C1F7C1F3C3F3EFD
:104BA000FF1FEF071F001E001E003E003C00F838EC
:104BB000F03FE01F000000000000000000000000C7
:104BC00000000000000000000000E003E003E0033C
:104BD000E0030000000000000000000000000000F2
:104BE000E003E003E003E003000000000000000039
:104BF0000000000000000000000000000000E003D2
:104C0000E003E003E00300000000000000000000FB
:104C100000000000E003E003E003E003E001E00146
:104C2000E001C0038003000000000000000000005D
:104C3000000003000F003F00FC00F003C00F003F26
:104C400000FE003FC00FF003FC003F000F00030018
:104C50000000000000000000000000000000000054
:104C60000000000000000000000000000000FFFF46
:104C7000FFFF000000000000FFFFFFFF000000003A
:104C80000000000000000000000000000000000024
:104C90000000000000000000000000E000F8007EBE
:104CA000801FE007F8017E001F007E00F801E0078A
:104CB000801F007E00F800E00000000000000000FF
:104CC0000000F01FFC3F3E381F381F381E001E003A
:104CD0003C007800F000E001C003C003C007C0073B
:104CE000000000000000C007C007C007000000006F
:104CF000000000000000F803FE0F1E1F0F3E7F3C67
:104D0000FF78EF79C773C7F38FF38FF38FF39FF3B8
:104D10009FF3FF73FF7BF779003C1C1FFC0FF80328
:104D20000000000000000000000000000000000083
:104D3000E003E003F007F007F007780F780F7C0E30
:104D40003C1E3C1E3E3CFE3FFF3F1F780F780FF09D
:104D500007F007F000000000000000000000000065
:104D600000000000F83FFC3F3E3C1E3C1E3C1E3C49
:104D70003E3C7C3CF03FF83F7E3C1F3C1F3C0F3CE0
:104D80000F3C1F3CFE3FF83F000000000000000009
:104D90000000000000000000FF01FF07871F003E29
:104DA000003C007C00780078007800780078007C77
:104DB000007C003E003F831FFF07FF010000000052
:104DC000000000000000000000000000F07FFC7FF9
:104DD0007E781F781F780F780F780F780F780F780C
:104DE0000F780F780F781F781E787E78F87FE07F35
:104DF00000000000000000000000000000000000B3
:104E0000FF3FFF3F003E003E003E003E003E003EB2
:104E1000FE3FFE3F003E003E003E003E003E003EA4
:104E2000FF3FFF3F00000000000000000000000006
:104E300000000000FF1FFF1F001E001E001E001EBE
:104E4000001E001EFF1FFF1F001E001E001E001E72
:104E5000001E001E001E001E0000000000000000DA
:104E60000000000000000000FE03FF0F871F003E4F
:104E7000007C007C007800F800F87FF87FF80F785D
:104E80000F7C0F7C0F3E8F1FFF0FFE030000000002
:104E90000000000000000000000000001F7C1F7CDC
:104EA0001F7C1F7C1F7C1F7C1F7C1F7CFF7FFF7F64
:104EB0001F7C1F7C1F7C1F7C1F7C1F7C1F7C1F7C1A
:104EC00000000000000000000000000000000000E2
:104ED000FF3FFF3FE003E003E003E003E003E00304
:104EE000E003E003E003E003E003E003E003E003AA
:104EF000FF3FFF3F00000000000000000000000036
:104F000000000000FC1FFC1F7C007C007C007C007B
:104F10007C007C007C007C007C007C007C007800B5
:104F20007800F838F03FC03F0000000000000000AB
:104F300000000000000000001F3C1E3C3C3C783C90
:104F4000F03CE03DE03FC03F803FC03FE03FF03DF0
:104F5000F03C783C7C3C3E3C1F3C0F3C0000000099
:104F6000000000000000000000000000003E003EC5
:104F7000003E003E003E003E003E003E003E003E41
:104F8000003E003E003E003E003E003EFF3FFF3F31
:104F90000000000000000000000000000000000011
:104FA0001FF81FFC1FFC3FFE3FFE3FFE7FFF77FF09
:104FB00077FFF7F7E7F7E7F3E7F3C7F307F007F053
:104FC00007F007F0000000000000000000000000F3
:104FD000000000000F7C0F7C0F7E0F7F0F7F8F7F04
:104FE0008F7FCF7FEF7BEF79FF79FF78FF787F7836
:104FF0003F783F781F781F78000000000000000015
:105000000000000000000000F007FC1F3E3E1F7C77
:105010000F780F780FF80FF80FF80FF80FF80FF858
:105020000F780F781F7C3E3EFC1FF0070000000049
:10503000000000000000000000000000FC3FFF3FF7
:105040001F3E0F3E0F3E0F3E0F3E1F3E3F3EFC3FBA
:10505000F03F003E003E003E003E003E003E003E6F
:105060000000000000000000000000000000000040
:10507000F007FC1F3E3E1F7C0F780F780FF80FF8EB
:105080000FF80FF80FF80FF80F780F781F7C3E3EDF
:10509000FC1FF8077C003F000F0003000000000029
:1050A00000000000F03FFC3F7E3C3E3C1E3C1E3CAE
:1050B0003E3C3C3CFC3CF03FE03FF03DF83C7C3C5F
:1050C0003E3C1E3C1F3C0F3C000000000000000066
:1050D0000000000000000000FC07FE1F0E3E003C28
:1050E000003C003C003EC01FF80FFE037F001F0085
:1050F0000F000F001F203E3CFC3FF01F000000008F
:10510000000000000000000000000000FFFFFFFFA3
:10511000E003E003E003E003E003E003E003E00377
:10512000E003E003E003E003E003E003E003E00367
:10513000000000000000000000000000000000006F
:105140000F7C0F7C0F7C0F7C0F7C0F7C0F7C0F7C07
:105150000F7C0F7C0F7C0F7C0F7C1E3C1E3C3E3E68
:10516000FC1FF0070000000000000000000000002D
:105170000000000007F007F007F80F780F7C1E3CD6
:105180001E3C1E3E3C1E3C1F781F780FF80FF00798
:10519000F007F007E003E00300000000000000005B
:1051A000000000000000000003E003F003F007F03F
:1051B000E7F3E7F3E7F3E773F77BF77FFF7F7F7FA3
:1051C0007F7F7E7F7E3F3E3E3E3E3E3E00000000B3
:1051D00000000000000000000000000007F80F7C45
:1051E0001E3E3E3E3C1FF80FF007E007E003E003E1
:1051F000F007F80F7C0F7C1E3E3C1F780F780FF0F5
:10520000000000000000000000000000000000009E
:1052100007F807780F7C1E3C1E3E3C1F780FF80FE6
:10522000F007E003E003E003E003E003E003E00352
:10523000E003E003000000000000000000000000A8
:1052400000000000FF7FFF7F0F001F003E007C007A
:10525000F800F000E001E003C007800F000F001E1F
:10526000003E007CFF7FFF7F000000000000000088
:105270000000FF07800780078007800780078007FE
:1052800080078007800780078007800780078007E6
:1052900080078007800780078007800780078007D6
:1052A000FF07FF07000000780078003C003C001E6C
:1052B000001E000F000F80078007C003C003E0013D
:1052C000E001F000F000780078003C003C001E0097
:1052D0001E000F000F0007000000F07FF000F0003C
:1052E000F000F000F000F000F000F000F000F0003E
:1052F000F000F000F000F000F000F000F000F0002E
:10530000F000F000F000F000F07FF07F0000C0003F
:10531000C001C001E003E003F007F0077807780F51
:10532000380F3C1E3C1E1E3C1E3C0F380F78077881
:10533000000000000000000000000000000000006D
:10534000000000000000000000000000000000005D
:10535000000000000000000000000000000000004D
:10536000000000000000000000000000FFFFFFFF41
:10537000000000000000F00000000000000000003D
:10538000000000000000000000000000000000001D
:10539000000000000000000000000000000000000D
:1053A00000000000000000000000000000000000FD
:1053B000000000000000F80FFC3F7C3C3E003E0077
:1053C0003E00FE07FE1F3E3E3E7C3E783E7C7E7CDD
:1053D000FF3FCF1F00000000000000000000003C65
:1053E000003C003C003C003C003CF83DFE3F3E3FA2
:1053F0001F3E0F3C0F3C0F3C0F3C0F3C0F3C1F3C33
:105400001E3C3E3FFC3FF03B00000000000000005F
:105410000000000000000000000000000000FE038B
:10542000FF0F871F003E003E003C007C007C007C9C
:10543000003C003E003E871FFF0FFE0300000000FF
:105440000000000000001F001F001F001F001F00C1
:105450001F00FF07FF1F3F3E1F3C1F7C1F7C1F7C60
:105460001F781F781F7C1F7C3F3C7F3EFF1FDF0F94
:10547000000000000000000000000000000000002C
:10548000000000000000F803FC0F3E1F1E3E1F3C02
:105490001F7CFF7FFF7F007C007C003C003E071FDD
:1054A000FF0FFE0300000000000000000000FF01ED
:1054B000E103C003C007C007C007FF7FFF7FC0072D
:1054C000C007C007C007C007C007C007C007C007A4
:1054D000C007C007C007C0070000000000000000B0
:1054E0000000000000000000000000000000EF07C6
:1054F000FF1F7F3E1F3C1F7C1F7C1F781F781F787B
:105500001F7C1F7C3F3C7F3EFF1FDF0F1E001E00E5
:105510001E007C38F83F003C003C003C003C003C56
:10552000003CFC3DFE3F9E3F1F3F1F3E1F3C1F3C7B
:105530001F3C1F3C1F3C1F3C1F3C1F3C1F3C1F3C93
:1055400000000000000000000000F001F001000079
:10555000000000000000E07FE07FE001E001E001EA
:10556000E001E001E001E001E001E001E001E00133
:10557000E001E00100000000000000000000F80071
:10558000F8000000000000000000F83FF83FF800BD
:10559000F800F800F800F800F800F800F800F8004B
:1055A000F800F800F800F800F800F800F000F071DA
:1055B000E07F003C003C003C003C003C003C1F3CC9
:1055C0003E3C7C3CF83CF03DE03DC03FC03FE03F0E
:1055D000F03DF83C7C3C3E3C1F3C1F3C0000000082
:1055E000000000000000F07FF001F001F001F00188
:1055F000F001F001F001F001F001F001F001F00123
:10560000F001F001F001F001F001F001F001F00112
:10561000000000000000000000000000000000008A
:105620000000000000009EF7FFFFFFFFFFFFE7FB09
:10563000E7F9C7F1C7F1C7F1C7F1C7F1C7F1C7F182
:10564000C7F1C7F1000000000000000000000000EA
:1056500000000000000000000000FC3DFE3F9E3FF7
:105660001F3F1F3E1F3C1F3C1F3C1F3C1F3C1F3C5D
:105670001F3C1F3C1F3C1F3C0000000000000000BE
:105680000000000000000000000000000000F00723
:10569000FC1F3E3E1F3C1F7C0F780F780F780F7861
:1056A0000F781F7C1F3C3E3EFC1FF00700000000EF
:1056B00000000000000000000000000000000000EA
:1056C0000000F83DFE3F3E3F1F3E0F3C0F3C0F3CAD
:1056D0000F3C0F3C0F3C1F3C1E3E3E3FFC3FF83F43
:1056E000003C003C003C003C003C0000000000008E
:1056F000000000000000EE07FE1F7E3E1E3C1E7CE8
:105700001E781E781E781E781E781E7C3E7C7E3E9B
:10571000FE1FDE0F1E001E001E001E001E000000E9
:10572000000000000000000000007F1FFF1FE71FB7
:10573000C71F871F001F001F001F001F001F001F23
:10574000001F001F001F001F0000000000000000DD
:105750000000000000000000000000000000FC0746
:10576000FE1F0E1E003E003E003FE01FFC07FE0035
:105770003E001E001E003E3CFC3FF01F00000000EB
:10578000000000000000000000000000800780070B
:105790008007FF7FFF7F80078007800780078007E3
:1057A00080078007800780078007C007FF03FF018D
:1057B00000000000000000000000000000000000E9
:1057C0000000000000001E3C1E3C1E3C1E3C1E3C17
:1057D0001E3C1E3C1E3C1E3C1E3C3E3C7E3CFE3E97
:1057E000FE1FDE0F000000000000000000000000AF
:1057F0000000000000000000000007F00F780F78A4
:105800001E3C1E3C1E3E3C1E3C1E780F780FF00FC7
:10581000F007F007E003E0030000000000000000D4
:10582000000000000000000000000000000003F085
:10583000E3F1E3F3E7F3F7F3F7F3F77F777F7F7FA6
:105840007F7F7F7F3E3E3E3E3E3E3E3E000000006C
:105850000000000000000000000000000000000048
:1058600000000F7C1E3E3C3E3C1FF80FF007F00787
:10587000E003F007F807F80F7C1E3E3E1F3C1F7840
:105880000000000000000000000000000000000018
:1058900000000000000007F80F780F7C1E3C1E3C43
:1058A0003C1E3C1E3C1F780FF80FF007F007E0038A
:1058B000E003C003C003C0038007800F007F000027
:1058C00000000000000000000000FF3FFF3F1F003D
:1058D0003E007C00F800F001E003C007800F001FCD
:1058E000001E003CFF7FFF7F000000000000000062
:1058F0000000FE01E003C003C003C003C003E001D9
:10590000E001E001C001C003803F803FC003C0014F
:10591000E001E001E001C003C003C003C003E003F5
:10592000FE017E000000C001C001C001C001C00135
:10593000C001C001C001C001C001C001C001C0015F
:10594000C001C001C001C001C001C001C001C0014F
:10595000C001C001C001C0010000C03FE003E00180
:10596000E001E001E001C001C003C003C001E001AB
:10597000FE00FE00E001C001C003C003C001E00161
:10598000E001E001E001E003C03F003F0000000053
:105990000000000000000000000000000000000007
:1059A00000000000073FC77FE773FFF17EF00000B3
:1059B00000000000000000000000000000000000E7
:1059C00000000102FFFFFFFEFFDDFFDDFFDDFFDD69
:1059D000FFFEFFFEFFFEFFFEFFFEFFDDFFFEFFFE00
:1059E000FFFEFFFEFFFEFFFEFFFEFFFEFFFEFFFECF
:1059F000FFFEFFFEFFFEFFFFFFFFFFFEFFFFFFFEBC
:105A0000FFFEFFFFFFFFFFFFFFFFFFFFFFFFFFFFA7
:105A1000FFFFFFFFFFFFFFFFFFFFFFFFFFFFFFFF96
:105A2000FFFFFFFFFFFFFFFEFFDDFFFFFFFFFFFFA9
:105A3000FFFFFFFFFFFFFFFFFFFFFFFFFFFFFFFF76
:105A4000FFFEFFDDFFFFFFFFFFFFFFFFFFFFFFFF89
:105A5000FFFFFFFFFFFFFFFFFFFFFFFFFFFFFFFF56
:105A6000FFFFFFFFFFFFFFFFFFFEFFFEFFFFFFFF48
:105A7000FFFFFFFFFFFFFFFFFFFFFFDDF739F69698
:105A8000F654F654F6D7F77AFFFEFFFFFFFFFFFF4D
:105A9000FFFEFFDDFFDDFFDDFFDDFFFEFFFEFFFEA2
:105AA000FFFEFFFEFFFEFFFEFFDDFFDDFFFFFFFF4E
:105AB000FFDDFFFFFFFFFFFFFFFFFFFEFFFEFFFE1B
:105AC000FFFEFFFFFFFFFFFFFFFFFFFFFFFFFFFFE7
:105AD000FFFFFFFFFFFFFFFFFFFFFFFFFFFFFFFFD6
